:020000040800F2
:100000006819002001010008090100080B0100081F
:100010000D0100080F010008110100080000000098
:1000200000000000000000000000000013010008B4
:100030001501000800000000170100081901000860
:100040001B0100081B0100081B0100085D290008B6
:100050001B0100081B0100081B0100081B01000810
:100060001B0100081B0100081B010008610E0008AD
:100070001B0100081B0100081B0100081B010008F0
:100080001B0100081B0100081B0100081B010008E0
:100090001B0100081B0100081B0100081B010008D0
:1000A0001B0100081B0100081B0100081B010008C0
:1000B0001B0100086D320008CD3700081B01000845
:1000C0001B0100081B0100081B0100081B010008A0
:1000D0001B010008AD3900081B0100081B010008C6
:1000E0001B0100081B0100081B010008DFF80CD0F1
:1000F00000F080FC004800475D4E000868190020B1
:100100000648804706480047FEE7FEE7FEE7FEE7B1
:10011000FEE7FEE7FEE7FEE7FEE7FEE7AD3100089B
:10012000ED00000840EA01039B0703D009E008C97D
:10013000121F08C0042AFAD203E011F8013B00F8AC
:10014000013B521EF9D27047F0B480EA0102D40F8D
:100150004200B2EB410F02D20246084611464A0065
:1001600042D0C30DDDB2C1F3C752AD1A202D35DA2E
:10017000C1F3160141F4000204B15242C5F1200658
:1001800002FA06F12A411044B3EBD05F23D0C4B188
:10019000012DA0EBC35009DCF0BC4FF0004202EA95
:1001A000C352DBB200F5000000F069BB400000F173
:1001B000807000EBC350A0F1807040EAD17049001C
:1001C00009E0490841EAC071A0EBC35000F5000006
:1001D000400800EBC350F0BC00F048BB6142012274
:1001E00002EB4101001BF6E7F0BC704781F00041D3
:1001F000AAE780F00040A7E780EA010210B502F00C
:100200000043400022D04A001FD0010E01EB1261D2
:10021000C0F35600C2F3560240F4000042F400025C
:10022000A0FB022000047F39140400D0401C50EAD7
:10023000124001D44000491EC2B20C0604EBD0109B
:10024000401C4008802A02D003E0002010BD20F0AE
:100250000100002900DA0020184310BD30B480EA04
:10026000010202F0004530F0004221F0004013D0BE
:1002700090B1C30DD40DC2F31601C0F31600E41AF9
:1002800041F4000140F400027D34914201D3641C2A
:1002900000E04900002C02DA30BC002070474FF427
:1002A00000000023914201D3891A034340084FEA1A
:1002B0004101F7D151B1914202D14FF0004105E027
:1002C00002D24FF0010101E06FF0010103EBC450D5
:1002D000284430BC00F0CABA2DE9FE4F804681EABE
:1002E0000300C00F0C46009021F0004123F00045B0
:1002F000B8EB0200A94105D24046214690461C4673
:100300000B46024623F00040104347D0270DC7F3A9
:100310000A00C3F30A510290401A019040286BDA98
:10032000C3F3130040F4801B0098924620B10023D1
:10033000D2EB030A63EB0B0B01985946C0F1400264
:10034000504600F062FA06460D4650465946019A5C
:1003500000F07AFA10EB08006141002487EA11529C
:1003600084EAE7731A4340D0009A62B3019A012AE3
:100370004FEA075215DC001B61EB02014FF000420F
:1003800002EA0752CDE90042001C41F580113246D5
:100390002B4600F0B1FA03B0BDE8F08F404621468D
:1003A000F9E7001B61EB0201001C41F58013001806
:1003B0005B412018A2F5001747EB030140EAD57016
:1003C000B6196D4111E06D084FEA360645EAC07571
:1003D0004FEA0752001B61EB0201001C41F580113E
:1003E00049084FEA30000019514132462B4603B00C
:1003F000BDE8F04F00F071BA0098012240000023E0
:10040000D0EB020263EBE073009821464FEAE07400
:10041000B8EB000061EB0401E9E783F000435BE720
:1004200081F0004158E72DE9FE4F81EA030404F012
:10043000004421F0004100944FF0000B23F00043F2
:1004400050EA01045ED052EA03045BD0C3F30A54BD
:10045000C1F30A552C44A4F2F3340194A0FB0254D6
:10046000C1F3130141F48011C3F3130343F4801368
:1004700001FB024400FB034E840A970A44EA8154BC
:1004800047EA8357A4FB076802958D0A05FB078599
:100490004FEA932C04FB0C542705029D4FEA0658A3
:1004A00047EA1637B5EB08056EEB070C870E920E80
:1004B00047EA811742EA8312A7FB0201B6EB0B0160
:1004C00064EB00042B0D43EA0C335E1844EB1C5024
:1004D000DA465146E7FB0201C5F313044FEA0B333A
:1004E00043EA14534FEA0432019C43EA0603A4F1A1
:1004F0000C040294009CCDE900B400F0FDF903B0B7
:10050000BDE8F08F00200146F9E72DE9F04D81EAC2
:10051000030404F0004B21F0004514464FF0000A9C
:1005200023F0004150EA050220D054EA01021DD018
:10053000C5F30A570246C5F31303C1F31300C1F311
:100540000A5640F4801543F48013A7EB0608101BED
:10055000D64608F2FD3873EB050002D308F1010816
:1005600001E092185B41B8F1000F03DA0020014668
:10057000BDE8F08D00204FF48011064684460EE061
:10058000171B73EB050705D3121B63EB050306432B
:100590004CEA010C49084FEA300092185B4150EADE
:1005A0000107EDD152EA030012D082EA040083EA87
:1005B0000501084305D0101BAB4106D201220023E0
:1005C00006E000224FF0004302E06FF001025310FA
:1005D0001AEB06004CEB085110EB0A0041EB0B0143
:1005E000BDE8F04D00F079B9C10F80EAE070084431
:1005F000CA079623002100F042B996230022114633
:1006000000F03DB90EB5C10F80EAE0700844CA079A
:10061000002140F233438DE80E000A460B4600F0FD
:100620006BF903B000BD0EB540F2334102910021D9
:10063000CDE900110A460B4600F05EF903B000BD9B
:1006400000F0004220F00040C10DC0F3160040F45D
:1006500000007F2901DA00207047962903DCC1F1F0
:100660009601C84001E096398840002AF4D0404203
:10067000704720F00040C10DC0F3160040F40000A8
:100680007F2901DA00207047962903DCC1F1960129
:10069000C840704796398840704770B5C1F30A5218
:1006A00001F000450024C1F3130140F2FF3341F48F
:1006B00080119A4201DA002070BD40F233439A4221
:1006C000A2F2334203DC524200F0AEF800E0904068
:1006D0002C43F1D0404270BDC1F30A5210B5C1F3B2
:1006E000130140F2FF3341F480119A4201DA0020F5
:1006F00010BD40F233439A42A2F2334203DC52422D
:1007000000F092F810BD904010BD00F0004230F0B3
:1007100000400AD0C10D01F56071C0F3160042EA35
:100720000151C2084007114370470020014670473D
:1007300001F0004330B421F0004150EA010206D03C
:100740000A0DA2F56072C1F31301002A02DC30BC6D
:1007500000207047440F44EAC104C100E01830BCD7
:1007600000EBC25000F082B8002801DBC0F100406D
:10077000002901DBC1F100418142704730B50B46D1
:10078000014600202022012409E021FA02F59D42C1
:1007900005D303FA02F5491B04FA02F52844151E95
:1007A000A2F10102F1DC30BD2DE9F05F0546002029
:1007B00092469B4688460646814640241BE02846D2
:1007C00041464746224600F02FF853465A46C01A83
:1007D000914110D311461846224600F016F82D1A02
:1007E00067EB01084F4622460120002100F00DF87A
:1007F00017EB00094E41201EA4F10104DFDC48463E
:1008000031462A464346BDE8F09F202A04DB203AC1
:1008100000FA02F1002070479140C2F1200320FA53
:1008200003F3194390407047202A04DB203A21FA51
:1008300002F00021704721FA02F3D040C2F12002F9
:100840009140084319467047202A06DBCB17203A0F
:1008500041FA02F043EAE07306E041FA02F3D040C5
:10086000C2F1200291400843194670470029A8BFF1
:100870007047401C490008BF20F00100704710B4C9
:10088000B0FA80FC00FA0CF050EA010404BF10BC7E
:10089000704749B1CCF1200421FA04F411FA0CF1AB
:1008A00018BF012121430843A3EB0C01CB1D4FEAE4
:1008B00000614FEA102042BF002010BC704700EBDF
:1008C000C35010440029A4BF10BC7047401C49000D
:1008D00008BF20F0010010BC704710B5141E73F162
:1008E000000408DA401C41F1000192185B411A43F0
:1008F00001D120F0010010BD2DE9F04D92469B463C
:1009000011B1B1FA81F202E0B0FA80F220329046E1
:10091000FFF77BFF04460F4640EA0A0041EA0B015D
:1009200053465A46084313D0114653EA010019D0E2
:10093000C8F140025046FFF777FF05460E46504685
:1009400059464246FFF761FF084305D0012004E005
:1009500020463946BDE8F08D0020054346EAE076A2
:100960002C4337430A986305E40AA0EB08000022F1
:10097000FD0A44EA47540A3002D500200146E9E75F
:10098000010510196941DDE9084500196941BDE813
:10099000F04DA2E7C1F30A52C1F3130140F2FF3355
:1009A00041F480119A4202DA00200146704740F279
:1009B00033439A42A2F2334202DC5242FFF734BF81
:1009C000FFF723BF30B5041E71F1000404DB4FF0C4
:1009D0000044404264EB0101141E73F1000405DB86
:1009E0001C464FF00043524263EB0403994208BF98
:1009F000904230BD064C074D06E0E06840F0010330
:100A000094E8070098471034AC42F6D3FFF772FB26
:100A1000DCA70008FCA7000870B58C1810F8015B73
:100A200015F0070301D110F8013B2A1106D110F887
:100A3000012B03E010F8016B01F8016B5B1EF9D18B
:100A40002B0705D40023521E0DD401F8013BFAE711
:100A500010F8013BCB1A921C03E013F8015B01F87C
:100A6000015B521EF9D5A142D8D3002070BD21B13F
:100A7000826842F00102826003E0826822F0010293
:100A80008260704721B1826842F48072826003E024
:100A9000826822F480728260704721B1826842F4D9
:100AA0008012826003E0826822F4801282607047C4
:100AB000014600208A6802F004020AB1012000E029
:100AC00000207047014600208A6802F008020AB13F
:100AD000012000E00020704730B5024600200023CE
:100AE00050680F4C20400D790C6844EA05242043DF
:100AF000506090680B4C2040D1E902542C434D7952
:100B000044EA450420439060D06A20F470000C7CD5
:100B1000641EE4B2234340EA0350D06230BD0000BB
:100B2000FFFEF0FFFDF7F1FFF0B504460D46002093
:100B30000021092D11DDE068A5F10A0606EB460744
:100B4000072606FA07F18843A5F10A0606EB4606D2
:100B500003FA06F10843E0600CE0206905EB450765
:100B6000072606FA07F1884305EB450603FA06F166
:100B700008432061072A0FDA606B561E06EB8607D2
:100B80001F2606FA07F18843561E06EB860605FA6D
:100B900006F10843606322E00D2A0FDA206BD61FAE
:100BA00006EB86071F2606FA07F18843D61F06EBD9
:100BB000860605FA06F10843206310E0E06AA2F118
:100BC0000D0606EB86071F2606FA07F18843A2F1F9
:100BD0000D0606EB860605FA06F10843E062F0BD55
:100BE000816841F0080181607047816841F004012B
:100BF0008160704700B585B000F0B4FB0121480268
:100C000001F0E0FC0020009001208DF804008DF838
:100C100005004FF4C02002900020039009208DF8B9
:100C2000100069462E48FFF757FF4FF4004001F0CF
:100C30008DFC0723012200212948FFF775FF0723B8
:100C4000022201212648FFF76FFF0723032202211A
:100C50002348FFF769FF0723042203212048FFF7F9
:100C600063FF0723052204211D48FFF75DFF0723CB
:100C7000062205211A48FFF757FF07231A460621C7
:100C80001748FFF751FF0723082219461448FFF7BA
:100C90004BFF0723092208211148FFF745FF0121D7
:100CA0000F48FFF7EFFE01210D48FFF7E0FE0C486B
:100CB000FFF796FF00BF0A48FFF704FF0028FAD1AC
:100CC0000748FFF792FF00BF0548FFF7F1FE002835
:100CD000FAD101210248FFF7E0FE05B000BD000097
:100CE0000024014008B50121042001F06BFC4FF401
:100CF0008060ADF8000010208DF8030003208DF80F
:100D000002006946044800F04BFB4FF48061024842
:100D100000F023FC08BD00000008014010B50120D0
:100D200001F070FC002001F06DFC10BD08B501461B
:100D3000002000900348009000980844009000981C
:100D4000008808BD006C004008B500220092044AEB
:100D50000092009A02440092009A116008BD0000BF
:100D6000006C004070B588B0054600246FE0C4EB0D
:100D7000C400394901EB800005EB0413D3E901629B
:100D80001968DB68C0E90162C3600160C4EBC4019B
:100D9000314A02EB8101C868012101F013FCC4EB68
:100DA000C4002D4901EB8000008901A921F824002D
:100DB000C4EBC400284911F8200001A901EB84010B
:100DC000C87001AA02EB8401C4EBC402224B03EBFE
:100DD0008202506800F0E4FA0120C4EBC4011E4A0C
:100DE00002EB810108740021C4EBC40002EB800017
:100DF0004174C4EBC40002EB80008174C4EBC400F6
:100E0000114611F82000482806D10021C4EBC40087
:100E100002EB8000C17406E00121C4EBC4000E4A5D
:100E200002EB8000C1740021C4EBC4000A4A02EB4B
:100E300080000175C4EBC40002EB800041750749D6
:100E4000C4EBC40002EB80008161601CC4B2072CBB
:100E50008DDB08B070BD0000580F00206D17000832
:100E60002DE9F04F87B0022000F0B4F900287DD0C2
:100E70004FF0000A17E04D4890F85F0038B1514636
:100E80004B4800F06EFB4B4921F81A0007E0CAF10D
:100E90000301474800F065FB464921F81A000AF1B2
:100EA00001001FFA80FABAF1040FE4DB4FF0040AE4
:100EB0000AE051463E4800F054FB3E4921F81A0032
:100EC0000AF101001FFA80FABAF1080FF1DB4FF0C6
:100ED000000A25E03548523010F80A00334C22341D
:100EE00004EB4A0400902388304C123404EB4A048B
:100EF00022882E4CA41C04EB4A0421882D4C34F883
:100F00001A0004F0CDFB2949323101EB8A0109684E
:100F10000844294921F81A000AF101001FFA80FA51
:100F2000BAF1080FD6DB06F0EDFA2049B1F86000FF
:100F3000FFF779FBCDE9040108211D4800F011FB02
:100F40008346FFF75FFB80464FF066321B4BFFF78F
:100F50006AFA00221A4BCDE90001FFF764FACDE9E5
:100F60000201DDE90423FFF75EFA00E01BE006461C
:100F70000022144BFFF7C9FA0446FFF7D9FB1249C8
:100F800008600A48D0F85B100F480068FFF7ECFBD8
:100F900003D201200D49087002E000200B490870BF
:100FA000022000F057F807B0BDE8F08FF8140020D9
:100FB000840A0020380B0020480B002066660A4097
:100FC000000008400C3E4F4110000020140000209B
:100FD00000B58DB00121084601F0C4FA1A4800F0AE
:100FE00053F81A4802901A480390002004905A209F
:100FF0000590002006908020079040000890800017
:10100000099020200A9000020B9000200C9002A969
:101010000D4800F0FEF8012202210B4800F0F0F824
:101020000B208DF8040000208DF805008DF80600D7
:1010300001208DF8070001A800F00EFD01210248F3
:1010400000F016F80DB000BD080002404C2401402D
:10105000840A002000F0805111B10349086001E0CA
:10106000024948607047000004040240000002404A
:1010700021B1026842F00102026004E002684FF60A
:10108000FE731A400260704701684FF6FE7211400D
:1010900001600021016041608160C1604B4988426C
:1010A00008D14A490839496841F00F01474A083ACE
:1010B00051608AE045491431884208D143490839D2
:1010C000496841F0F001414A083A51607DE03F49EA
:1010D0002831884208D13D490839496841F4706196
:1010E0003A4A083A516070E038493C31884208D1A8
:1010F00036490839496841F47041344A083A516028
:1011000063E032495031884208D130490839496892
:1011100041F470212D4A083A516056E02B49643160
:10112000884208D129490839496841F47001274AA1
:10113000083A516049E025497831884208D123496D
:101140000839496841F07061204A083A51603CE032
:101150001F49884206D1011F096841F00F01021F93
:10116000116032E01A491431884208D11849091F28
:10117000096841F0F001164A121F116025E0144978
:101180002831884208D11249091F096841F4706169
:101190000F4A121F116018E00D493C31884208D1F6
:1011A0000B49091F096841F47041094A121F116077
:1011B0000BE007495031884207D10549091F0968EA
:1011C00041F47021024A121F11607047080002406A
:1011D0000804024001460020002201F0805313B1B0
:1011E000054B1A6801E0054B1A6802EA01030BB1CE
:1011F000012000E00020704700040240000002408F
:101200001AB103680B43036002E003688B43036079
:10121000704710B50022026847F6F0739A430C6AD3
:101220008B6823430C6923434C6923438C69234314
:10123000CC6923434C6A23438C6A23431A430260DC
:10124000CB6843600B6883604B68C36010BD0000CF
:1012500030B5044604254FF4302000F06FF8054601
:10126000042D17D10C48006940F002000A490861BA
:1012700008464461006940F0400008614FF43020A6
:1012800000F05CF805460448006941F6FD7108402D
:1012900001490861284630BD0020024004200B4966
:1012A000C96801F0010109B101200EE00749C968D0
:1012B00001F0040109B1022007E00449C96801F006
:1012C000100109B1032000E0042070470020024013
:1012D0000348006940F08000014908617047000040
:1012E0000020024070B504460D460426F00200F0CE
:1012F00025F80646042E11D10948006940F0010086
:10130000074908612580F00200F018F806460448F5
:10131000006941F6FE71084001490861304670BD20
:101320000020024002480349486003484860704773
:101330002301674500200240AB89EFCD00B502468E
:101340000423FFF7ABFF034603E0FFF7A7FF0346C5
:10135000521E012B01D1002AF7D102B905231846EC
:1013600000BD000008B501210C2001F02BF9FF2081
:10137000ADF8000003208DF8020000208DF8030076
:101380006946054800F00CF80120ADF800006946F8
:10139000024800F005F808BD00080140000C0140BB
:1013A0002DE9F041024600250026002000230024FC
:1013B000002791F803C00CF00F0591F803C00CF062
:1013C000100CBCF1000F03D091F802C04CEA0505E7
:1013D00091F800C0BCF1000F31D0146800202BE060
:1013E0004FF0010C0CFA00F3B1F800C00CEA030650
:1013F0009E4220D183004FF00F0C0CFA03F7BC4340
:1014000005FA03FC4CEA040491F803C0BCF1280F70
:1014100006D14FF0010C0CFA00FCC2F814C00AE02F
:1014200091F803C0BCF1480F05D14FF0010C0CFA44
:1014300000FCC2F810C0401C0828D1D31460B1F8D9
:1014400000C0BCF1FF0F34DD546800202EE000F135
:10145000080C4FF0010808FA0CF3B1F800C00CEAD0
:1014600003069E4221D183004FF00F0C0CFA03F7C4
:10147000BC4305FA03FC4CEA040491F803C0BCF138
:10148000280F05D100F1080C08FA0CF8C2F81480F6
:1014900091F803C0BCF1480F07D100F1080C4FF0E0
:1014A000010808FA0CF8C2F81080401C0828CED3B6
:1014B0005460BDE8F0810000F0B50A460023002426
:1014C0000021002500F00046B6F1004F02D11D4E6C
:1014D000F16901E01B4E7168C0F3034583B200F46B
:1014E0004016B6F5401F08D121F07061154E7668A0
:1014F00026F07066134F7E6012E000F48016B6F599
:10150000801F06D1032606FA05F4A14341F070615D
:1015100006E0460D360103FA06F6B14341F070616C
:1015200022B1460D360103FA06F6314300F00046BB
:10153000B6F1004F02D1034EF16101E0014E71603E
:10154000F0BD0000000001400246002093680B40FF
:101550000BB1012000E0002070474161704701613C
:101560007047F0B585B003460C46002107E0092519
:1015700005FB014533F815502DF81150491C0A2977
:10158000F5DB002218E0002111E03DF811604D1C50
:101590003DF81550AE4209DD3DF811004D1C3DF8F7
:1015A00015502DF811504D1C2DF81500491CC2F195
:1015B00009058D42E9DC521C092AE4DBBDF80A600A
:1015C000BDF80C70F51905EBD576701005B0F0BDBF
:1015D00070B500242DE0C4EBC400174901EB800076
:1015E000007C00B923E0C4EBC400134901EB800583
:1015F000C4EBC40001EB8000866995E80F00B0479A
:10160000C4EBC4010C4A02EB8101C97C884206D1BB
:101610000121C4EBC40002EB8000817406E00021CC
:10162000C4EBC400044A02EB8000817400BF601C5C
:10163000C4B2072CCFDB70BD580F002010B54FF49B
:1016400080710948FFF78BFF4FF400710648FFF7E0
:1016500086FF4FF400710448FFF77FFF4FF480715D
:101660000148FFF77AFF10BD000C014010B54FF4A0
:1016700080710748FFF773FF4FF400710448FFF7CC
:101680006CFF4FF400710248FFF769FF10BD0000C6
:10169000000C014010B54FF480710448FFF75FFF64
:1016A0004FF480710148FFF758FF10BD000C014056
:1016B00002464FF0FF3300210EE00C4830F81100D5
:1016C000904201D10B4609E0084830F811009042E1
:1016D00000DD03E0481C81B22B29EEDB00BF002BAC
:1016E00001DA002070470120FCE70000F00600202E
:1016F0000146CA1701EB92729210A1EB820292B9D5
:10170000642091FBF0F200FB121050B94FF4C87046
:1017100091FBF0F200FB121008B901207047002085
:10172000FCE70120FAE70020F8E7000000B59DB0D3
:1017300070220B4901A8FEF7F5FC01A8FFF712FB88
:101740000121084600F03EFF01210648FFF7B4FEE4
:101750000548406820F02000034948601DB000BDE6
:101760002881000800023000002004E01FB5BDF809
:1017700008100198FFF7E8FE04B010BD1CB511A1D8
:1017800003C9CDE90001082001F0A0FB052269464C
:10179000302000F02BF905226946102000F090F867
:1017A000002406E01DF80400A52800D003E0601C1A
:1017B000C4B2052CF6DB00BF052C01D001201CBDF6
:1017C0000020FCE7A5A5A5A5A500000000B587B0F1
:1017D00001211C2000F0F6FE4FF48050ADF81800F7
:1017E00010208DF81B0003208DF81A0006A9294847
:1017F000FFF7D6FD4FF48070ADF8180006A9264813
:10180000FFF7CEFD4FF40070ADF8180028208DF8DA
:101810001B0006A92048FFF7C3FD4FF440711E4886
:10182000FFF79BFE4FF480511A48FFF796FE01F038
:10183000D9FA0021194801F05DFB0020ADF8040041
:101840004FF48270ADF806000020ADF80800ADF846
:101850000A00ADF80C004FF40070ADF80E0018202F
:10186000ADF810000020ADF812000720ADF814000C
:1018700001A90A4801F058FB0121084801F03AFB90
:1018800000200749086001200649C1F8B00107B0EF
:1018900000BD0000000C014000080140003800407D
:1018A000A00121420080214210B5002003490860B8
:1018B0000021202000F0B8F810BD0000A001214256
:1018C0002DE9F04107460D46164600200A490860FA
:1018D000384601F0D1FA8046002405E0FF2001F0EF
:1018E000CBFA2855601CC4B2B442F7DB0120024990
:1018F00008604046BDE8F081B081214270B50446E1
:10190000002007490860204601F0B6FAFF2001F0E8
:10191000B3FA054601200349C1F8B001284670BD5D
:10192000B08121420080214210B500201449086096
:1019300005221449302000F059F8052212492A20C6
:1019400000F054F80121212000F06EF8012122203E
:1019500000F06AF81A21242000F066F828212520DA
:1019600000F062F80F21262000F05EF80E21202002
:1019700000F05AF801200549C1F8A00110BD00008F
:10198000A0012142988100089D81000800002142A9
:1019900070B50546102001F099FA00201149086041
:1019A00020222946A02000F021F801200E49C1F88C
:1019B000A0010720FFF7A2FF04462146272000F0E0
:1019C00033F804F0100028B1FF21E12000F02CF8DA
:1019D000102070BD04F0200008B12020F9E7FF209E
:1019E000F7E70000A0012142000021422DE9F0416B
:1019F00007460C46154600200A490860384601F0A3
:101A00003BFA8046002605E014F8010B01F034FA99
:101A1000701CC6B2AE42F7DB0120024908604046A6
:101A2000BDE8F081B081214270B505460C4600202A
:101A300007490860284601F01FFA0646204601F0D3
:101A40001BFA01200349C1F8B001304670BD000007
:101A5000B08121420080214270B5002100230F2275
:101A6000C47804B3154C246804F4E064C4F5E0645D
:101A7000210AC1F10403CA40447804FA03F18478CE
:101A80001440214309010E4C0678A155047804F056
:101A90001F050124AC4005786D11AD0005F1E0256E
:101AA000C5F8004109E0047804F01F050124AC40AA
:101AB000044D0678761145F8264070BD0CED00E027
:101AC00000E400E080E100E002490143024A1160C5
:101AD000704700000000FA050CED00E070B500242E
:101AE00018E004F1B000002100F0EFFA00210846F0
:101AF00000F0EBFA0021102000F0E7FA002505E0E5
:101B00000121002000F0E1FA681CC5B2802DF7DB4E
:101B1000601CC4B2082CE4DB70BD0000F0B51446B4
:101B200000267F2801DC3F2900DDF0BD0B46CF17E2
:101B300001EB5777FF10C7F10707FAB2CF1701EB98
:101B40005777FF10A1EBC707FDB2C5F107070123C7
:101B5000BB40DEB24CB10A4B03EBC0039B5C33438A
:101B6000074F07EBC007BB5408E0054B03EBC0036E
:101B70009B5CB343024F07EBC007BB5400BFD4E7E5
:101B8000251000202DE9F04F06460C4617469846D2
:101B9000A346002530E017F805904FF0000A25E035
:101BA00009F0800028B1214630460A9AFFF7B6FFB7
:101BB00009E00A9808B9012000E000200246214609
:101BC0003046FFF7ABFF4FF6FF7000EA4909601C93
:101BD000C4B2A4EB0B010998814203D15C46701C8E
:101BE000C6B206E00AF101001FFA80FABAF1080F46
:101BF000D6DB00BF681C85B2099908FB01F0C1174C
:101C000000EB5171B5EBE10FC5DBBDE8F08F2DE9BD
:101C1000F04706460F4690469946DDF820A0344628
:101C20000CE03D4606E0524629462046FFF776FF87
:101C3000681CC5B24D45F6DD601CC4B24445F0DDFC
:101C400000F090F8BDE8F08708B50121092000F008
:101C5000B9FC01210220FFF72FFC4FF44070ADF8D2
:101C6000000010208DF8030003208DF80200694663
:101C70003B48FFF795FB4FF440713948FFF76FFC85
:101C80000A2002F027FD0021AE2000F01EFA0021FC
:101C9000084600F01AFA0021102000F016FA002180
:101CA000402000F012FA0021B02000F00EFA0021CE
:101CB000812000F00AFA0021FF2000F006FA00213E
:101CC000A12000F002FA0021A62000F0FEF9002178
:101CD000A82000F0FAF900213F2000F0F6F90021D9
:101CE000C02000F0F2F90021D32000F0EEF900212D
:101CF000084600F0EAF90021D52000F0E6F90021BD
:101D0000802000F0E2F90021D82000F0DEF9002167
:101D1000052000F0DAF90021D92000F0D6F90021E1
:101D2000F12000F0D2F90021DA2000F0CEF90021F4
:101D3000122000F0CAF90021DB2000F0C6F90021D2
:101D4000302000F0C2F900218D2000F0BEF9002102
:101D5000142000F0BAF90021AF2000F0B6F908BD58
:101D6000000C014070B500241BE004F1B00000211C
:101D700000F0ABF90021084600F0A7F9002110207F
:101D800000F0A3F9002508E0074901EBC501085D53
:101D9000012100F09AF9681CC5B2802DF4DB601CAB
:101DA000C4B2082CE1DB70BD251000202DE9F84FEE
:101DB00080460F4616461C46BA462046E31704EBFB
:101DC0005373DB1021464FEAE47C04EB5C7C4FEA62
:101DD000EC0CA4EBCC0CBCF1000F02D04FF0010CCA
:101DE00001E04FF0000C6344224604EBD27C4FEA42
:101DF0006C0C03FB0CF303F0FF0BA6F12000C6B242
:101E000000254EE00C2C07D106EB4600274901EBDC
:101E10008000405D009013E0102C05D1244800EBB9
:101E20000610405D00900BE0182C07D106EBC600B1
:101E3000204901EB8000405D009001E0BDE8F88F93
:101E40004FF0000927E0009800F0800028B13946E3
:101E500040460A9AFFF762FE09E00A9808B9012095
:101E600000E00020024639464046FFF757FE009842
:101E70004006000E0090781CC7B2A7EB0A00A042F3
:101E800005D1574608F1010000F0FF0806E009F10E
:101E9000010000F0FF09B9F1080FD4DB00BF681C96
:101EA000C5B25D45AEDB00BFC8E70000A2810008F7
:101EB00016860008068C00082DE9FE4F06460D46E2
:101EC00017461C46DDF830A001952046E21704EBCA
:101ED0005272D2102146E31704EB5373DB10A4EBCC
:101EE000C3030BB1012300E000231A446243D2B2C2
:101EF00000920C2C05D107EB4700254901EBC009E6
:101F00000AE0102C03D1234800EB471904E007EB4B
:101F1000C700214901EBC0094FF0000832E019F871
:101F200008B00020029025E00BF0800028B1E9B253
:101F3000F0B25246FFF7F2FD0AE0BAF1000F01D10C
:101F4000012300E000231A46E9B2F0B2FFF7E6FDF4
:101F50004FEA4B604FEA106B681C85B20198281A53
:101F6000A04203D1019D701C86B206E00298401C7D
:101F7000C0B2029002980828D6DB00BF08F1010029
:101F800000F0FF0800988045C9DBBDE8FE8F000027
:101F9000629900087A9900087AA700082DE9F843A9
:101FA0000546884616461F46DDF8209000240BE0C3
:101FB000CDF80090325D05EB041188B21023414644
:101FC000FFF77AFF601CC4B2BC42F1DBBDE8F883C6
:101FD0002DE9FF4F82B0074691461E46DDE90F5AB4
:101FE00000200190002438E0301B401EC1B20A20BE
:101FF00005F078F9B9FBF0F00A21B0FBF1F201FB32
:1020000012080198B0B9701EA04213DDB8F1000F9C
:102010000ED1AB4605EBDB71491001FB0471C8B270
:102020002B462022CDF800A00399FFF7BFFE12E057
:1020300001200190AB4605EBDB71491001FB0471F7
:10204000C8B208F13001CAB22B46CDF800A00399FE
:10205000FFF7ACFE00BF601CC4B2B442C4DB06B0E4
:10206000BDE8F08F2DE9F84306460F4615461C469D
:10207000DDF8208021E004EBD4714910C1F180012A
:10208000B14202DA00263819C7B2C4F14000B842A2
:1020900004DA002006460746FFF720FDCDF8008051
:1020A0002A78234639463046FFF780FE204604EB67
:1020B000D07106EB6101CEB26D1C28787E2802DC5F
:1020C00028782028D7DABDE8F88370B504460D4695
:1020D0001DB1E0B201F00EFE02E0E0B201F0F4FD4D
:1020E00070BD000038B5F7484088801F072856D2D9
:1020F000DFE800F00F041A3745545300F248007827
:1021000000EB4000F14901EB80004078EE49087097
:1021100045E0ED48007800EB4000EC4901EB800021
:102120008078E94908703AE0E7480478007800EBE5
:102130004000E64901EB8000C078E3490870204682
:10214000FFF7B6FA60B1E0480078FFF7B1FA38B1AE
:10215000DF48007808B9012000E00020DC49087061
:102160001DE0D948007800EB4000D84901EB800021
:102170000079D54908700020D54908700FE0D24891
:10218000007800EB4000D14901EB80004079CE4956
:1021900008700020CE49087001E000E000BF00BFD9
:1021A000C9480078A8B9CB48007890B1C9480078F0
:1021B000412804D0C7480078C749088002E032208F
:1021C000C549088000203F237F2201460090FFF789
:1021D0001EFDBD48007868B1BE48007850B9BE48C1
:1021E0000078B949087000203F237F220146009003
:1021F000FFF70DFDB4480078012819DBB2480078DC
:10220000092815DCB3480078012801DA012000E034
:102210000020B0490978092901DD012100E00021F1
:10222000084328B144236A220921082002F094FFC0
:10223000A54800780A2815DBA3480078112811DC8E
:10224000A44800780A2801DA012000E00020A14912
:102250000978112901DD012100E00021084308B1BE
:1022600003F0B0FE98480078122815DB96480078F5
:10227000192811DC97480078122801DA012000E0C3
:10228000002094490978192901DD012100E000218D
:10229000084308B103F0B8FE8B4800781A281ADB0F
:1022A000894800781D2816DC8A4800781A2801DA47
:1022B000012000E00020874909781D2901DD012166
:1022C00000E00021084330B100203F237F22014677
:1022D0000090FFF79CFC7C4800781E281ADB7A48A7
:1022E0000078212816DC7B4800781E2801DA0120BE
:1022F00000E0002077490978212901DD012100E073
:102300000021084330B100203F237F220146009086
:10231000FFF77DFC6C48007822281ADB6A480078B9
:10232000242816DC6B480078222801DA012000E01E
:10233000002068490978242901DD012100E00021FD
:10234000084330B100203F237F2201460090FFF771
:102350005EFC5D480078252815DB5B4800782C285A
:1023600011DC5C480078252801DA012000E000201B
:10237000584909782C2901DD012100E0002108439A
:1023800008B103F030FE504800782D280AD151489A
:1023900000782D2806D000203F237F2201460090A0
:1023A000FFF735FC484800782E2819DB46480078AE
:1023B000332815DC474800782E2801DA012000E098
:1023C000002044490978332901DD012100E0002182
:1023D000084328B1092308223521342002F0BCFE2D
:1023E0003948007834281ADB37480078362816DC5C
:1023F00038480078342801DA012000E0002035490F
:102400000978362901DD012100E00021084330B1BF
:1024100000203F237F2201460090FFF7F8FB2A4867
:10242000007837281ADB28480078392816DC294834
:102430000078372801DA012000E0002025490978DA
:10244000392901DD012100E00021084330B10020DD
:102450003F237F2201460090FFF7D9FB1A480078FE
:102460003A281ADB184800783C2816DC194800780E
:102470003A2801DA012000E00020164909783C29B9
:1024800001DD012100E00021084330B100203F239D
:102490007F2201460090FFF7BAFB0B4800783D28E9
:1024A00026DB094800783F2822DC0A4800783D28CE
:1024B00001DA012000E00020064909783F290DDDFE
:1024C00001210CE01A00002026000020AC030020AF
:1024D00023000020270000202400002000210843C2
:1024E00030B100203F237F2201460090FFF78FFB91
:1024F0001048007841280AD10F480078412806D0BA
:1025000000203F237F2201460090FFF780FB09480F
:1025100000780949097888420AD00649097801EB10
:102520004101064A02EB810188688047FFF71AFCE7
:1025300038BD00002600002027000020AC0300204A
:10254000014908627047000000000E420146002069
:10255000034A506820F44040084350607047000030
:102560000010024029B1064A52690243044B5A61E5
:1025700004E0034A52698243014B5A6170470000EC
:102580000010024029B1064AD2690243044BDA61C5
:1025900004E0034AD2698243014BDA6170470000CC
:1025A0000010024029B1064A12690243044B1A6125
:1025B00004E0034A12698243014B1A61704700002C
:1025C0000010024029B1064A92690243044B9A6105
:1025D00004E0034A92698243014B9A61704700000C
:1025E0000010024029B1064AD2680243044BDA6067
:1025F00004E0034AD2688243014BDA60704700006E
:102600000010024001490860704700004004424247
:1026100030B500210022002400232D4D6D6805F007
:102620000C0121B1042905D0082923D105E0294D49
:10263000056022E0274D05601FE0254D6D6805F41B
:102640007012234D6D6805F48034022505EB92422B
:102650001CB9214D554305600BE01D4D6D6805F417
:1026600000351DB11C4D5543056002E0194D554321
:10267000056002E0174D056000BF00BF144D6D6896
:1026800005F0F0010909154D6B5C0568DD404560FA
:102690000F4D6D6805F4E061090A104D6B5C4568EB
:1026A000DD4085600A4D6D6805F46051C90A0B4D27
:1026B0006B5C4568DD40C560054D6D6805F44041C3
:1026C000890B074D6B5CC568B5FBF3F5056130BD43
:1026D0000010024000127A0000093D005C0A002050
:1026E0006C0A002010B501460022002300204A1188
:1026F000012A02D1094C236806E0022A02D1074CC4
:10270000236A01E0054C636A01F01F020124944032
:102710001C400CB1012000E0002010BD0010024060
:1027200000210B4A11700A4A203A82F82010012831
:1027300002D0042808D103E00121054A117004E009
:102740000521034A117000E000BF00BF7047000080
:102750002010024001490860704700003C044242DA
:102760000249096A0143014A1162704700100240A0
:10277000024909888143014A1180704704280040BA
:102780000348008840F010000149088070470000AD
:1027900004280040034800884FF6EF7108400149C3
:1027A000088070470428004070B5002600240025EA
:1027B00000F07CF806463948B6FBF0F4384800884B
:1027C000A0423CD036490C8040F2B27510E0284659
:1027D000FEF78EFF40B1B4F5B77F02D3A4F5B7740E
:1027E00004E0681C85B206E0A4F26D14681C85B292
:1027F000B4F5B67FEBD800BF2A488580002516E0E7
:1028000028498888FEF774FF30B1012D04D11D2CB2
:1028100001D31D3C09E00CE02348405DA04203D8F1
:102820002148405D241A00E003E0681C85B21C2C9E
:10283000E6D200BF681C1B498871601CC87117482C
:10284000B6FBF0F100FB11641649CC704FF46160E7
:10285000B4FBF0F008704FF46160B4FBF0F100FBE2
:1028600011403C21B0FBF1F00E4948704FF461601B
:10287000B4FBF0F100FB11403C21B0FBF1F201FB95
:102880001200084988700B46DA799979988800F027
:1028900029F804490872002070BD00008051010031
:1028A000480A002026140020CEA700080021034873
:1028B0000188001F008841EA004070471C28004042
:1028C00001460020064A12880A40D0B2044A121F6C
:1028D00012880A4012B108B1012000E000207047C0
:1028E00004280040F0B503460C461546642093FBCF
:1028F000F0F0C6B2642093FBF0F700FB1730C1B2D2
:10290000132E02DD01F16400C1B20846CF1701EBBE
:10291000977701EBA707BAB2072092FBF0F700FB0D
:10292000172082B25719601EDFF82CC01CF8000077
:10293000384482B2CF1701EB9777BF10A1EB87071E
:102940001FB9032C01DA501E82B2072092FBF0F768
:1029500000FB1720C0B2F0BDC2A700080EB50120D1
:10296000FFF7AEFF08B1FFF71FFF0220FFF7A8FF38
:10297000A0B10220FFF7FCFEFFF716FF0A4880789F
:1029800009494978084A1278CDE9002102900648A1
:10299000C3798279818805A001F0C2F90520FFF78B
:1029A000E7FE00F015F90EBD26140020416C61729F
:1029B0006D2054696D653A25642D25642D256420AC
:1029C00025643A25643A25640A00000029B1064AC4
:1029D00012880243044B1A8004E0034A128882439F
:1029E000014B1A8070470000002800401CB50024ED
:1029F00001214FF0C050FFF7C5FD0120FFF7A0FDFA
:102A00000420FEF793F945F25001884240D0FEF7CA
:102A100085F90120FFF784FE04E0601CC4B20A209F
:102A200001F058FE4120FFF75DFE08B9FA2CF4DBF7
:102A3000FA2C01DB01201CBD4FF48070FFF790FEE3
:102A40000120FFF787FE00F0C3F800F0CBF801216A
:102A50000846FFF7BBFF00F0BBF8FFF791FE47F613
:102A6000FF7000F0A5F800F0B3F8372032210B23F7
:102A70001422CDE90010062140F2E47000F026F89F
:102A8000FFF788FE45F250010420FEF75DF907E0EC
:102A900000F0A8F801210846FFF798FF00F098F829
:102AA00000F004F8FFF780FE0020C4E708B503201B
:102AB0008DF8000000208DF801008DF80200012043
:102AC0008DF803006846FEF7C7FF08BD2DE9F05FEB
:102AD00006460F4690469946DDE90AAB002440F2CF
:102AE000B270864203DB40F63300864202DD0120ED
:102AF000BDE8F09F40F2B2750AE02846FEF7F8FD07
:102B000010B12048044401E01F480444681C85B209
:102B1000B542F2DB781EC7B2002510E01B48405DCD
:102B200040F2A321484304EBC0143046FEF7E0FD19
:102B300018B1012D01D116480444681C85B2BD426C
:102B4000ECDBA8F1010040F2A321484304EBC014E0
:102B5000C9EB4910C0EB092004EB0014CAEB0A10C2
:102B600004EB80045C4401214FF0C050FFF70AFDE4
:102B70000120FFF7E5FC204600F00CF800F028F8F3
:102B80000020B5E70085E2018033E101CEA700080F
:102B90008051010000B50246FFF7F2FD100C034919
:102BA0000880091D0A80FFF7F5FD00BD18280040C8
:102BB00000B50246FFF7E4FDC2F303400349088075
:102BC000091D0A80FFF7E6FD00BD0000082800404F
:102BD00000BF0348008800F020000028F9D07047AB
:102BE00004280040074800884FF6F771084005495F
:102BF000088000BF0348008800F008000028F9D0D2
:102C0000704700000428004010B5FEF7E1FC0024E6
:102C1000E2E0C4EBC400724901EB8000007D30B1FA
:102C2000012822D0032848D004287CD18EE0C4EBB0
:102C3000C4006B4901EB8000807C01280DD101218B
:102C4000C4EBC400664A02EB800001750021C4EBAE
:102C5000C40002EB8000417506E00021C4EBC40013
:102C60005F4A02EB80004175B3E0C4EBC4005C49ED
:102C700001EB8000807C012812D10321C4EBC40049
:102C8000574A02EB80000175C4EBC40002EB8000E0
:102C900041750021C4EBC40002EB800041740BE0DD
:102CA0000021C4EBC4004E4A02EB80000175C4EB66
:102CB000C40002EB800041758BE0C4EBC4004849BE
:102CC00001EB8000807C01280DD00021C4EBC40002
:102CD000434A02EB800001750221C4EBC40002EB01
:102CE0008000417531E0C4EBC4003D4901EB800038
:102CF000807C012822D1C4EBC40001EB8000407C21
:102D0000401CC1B2C4EBC400354A02EB80004174E0
:102D10001E2913DB0421C4EBC40002EB8000017503
:102D2000C4EBC40000E053E002EB800041750021D9
:102D3000C4EBC40002EB8000417406E00021C4EB48
:102D4000C400274A02EB8000417542E0C4EBC40096
:102D5000234901EB8000807C01280DD00021C4EBC9
:102D6000C4001F4A02EB800001750221C4EBC400BD
:102D700002EB800041752AE0C4EBC400184901EB66
:102D80008000807C01281BD1C4EBC40001EB8000D3
:102D9000407C401CC1B2C4EBC400114A02EB80006D
:102DA00041741E290CDB0421C4EBC40002EB80003B
:102DB00041750021C4EBC40002EB8000417406E0C1
:102DC0000021C4EBC400064A02EB8000417500E01C
:102DD00000BF00BF601CC4B2072CFFF61AAF10BDC5
:102DE000580F002000B587B001210820FFF7EAFB4B
:102DF00001218803FFF7C6FB4FF46040ADF81800CF
:102E000018208DF81B0003208DF81A0006A9184819
:102E1000FEF7C6FA4FF460411548FEF7A0FB00200C
:102E2000ADF804004FF48270ADF806000020ADF854
:102E300008000220ADF80A000120ADF80C004002A5
:102E4000ADF80E003820ADF810000020ADF81200EB
:102E50000720ADF8140001A9064800F065F801212B
:102E6000044800F047F8FF2000F006F807B000BD66
:102E7000000C01400038004070B50546002405E014
:102E8000601CC4B2C82C01DD002070BD02210E48B8
:102E900000F03CF80028F3D029460B4800F042F837
:102EA000002405E0601CC4B2C82C01DD0020ECE762
:102EB0000121054800F02AF80028F3D0024800F06C
:102EC0002EF8C0B2E1E700000038004010B504461B
:102ED000074800884FF6C771084005490880084632
:102EE0000088204308800121014800F003F810BD4C
:102EF0000038004021B1028842F04002028004E024
:102F000002884FF6BF731A400280704702460020C5
:102F100013890B400BB1012000E0002070470146EF
:102F2000888970478181704710B50022028802F4B9
:102F300041520B884C8823438C882343CC882343FD
:102F40000C8923434C8923438C892343CC89234315
:102F50001A430280838B4FF2FF74234083830B8AD2
:102F6000038210BD30B503460C461546002207E02B
:102F7000184600F008F824F812009B1C501C82B27E
:102F8000AA42F5DB30BD0146088870472DE9F05FA5
:102F900080468A461746B8F1006F02D33348804511
:102FA00001D3BDE8F09FFEF7BDF9A8F1006B4FEA31
:102FB0009B25CBF34809C9F50074A74200DC3C46C9
:102FC0004DE04FF0006101EB85208A142849FFF79E
:102FD000C9FF00260BE009EB0600254931F8100077
:102FE0004FF6FF71884200D003E0701C86B2A64203
:102FF000F1DB00BFA6421BDA4FF0006101EB852038
:10300000FEF726F9002608E03AF8160006EB09015B
:10301000174A22F81100701C86B2A642F4DB4FF06A
:10302000006101EB85208A14114900F023F804E0C7
:1030300022465146404600F01DF8A74200D10FE05D
:103040006D1C4FF000090AEB440AA044381B87B2FC
:10305000B7F5007F02DD4FF4007400E03C46B0E7B6
:1030600000BFFEF735F900BF9BE700000000010834
:10307000580B00202DE9F04105460E461746002466
:1030800007E036F814102846FEF72CF9AD1C601C3A
:1030900084B2BC42F5DBBDE8F08110B500F002F867
:1030A00010BD00000CB5002001900090334800686E
:1030B00040F480303149086000BF3048006800F4B7
:1030C000003000900198401C0190009818B90198B8
:1030D000B0F5A06FF1D12948006800F4003010B1BC
:1030E0000120009001E0002000900098012843D1C9
:1030F0002348006840F01000214908600846006835
:1031000020F0030008600846006840F002000860F4
:103110001A484068194948600846406848600846AF
:10312000406840F4806048600846406820F47C10A5
:1031300048600846406840F4E81048600846006867
:1031400040F08070086000BF0C48006800F000701C
:103150000028F9D00948406820F00300074948607A
:103160000846406840F00200486000BF03484068DD
:1031700000F00C000828F9D10CBD0000001002403E
:1031800000200240042808D14FF0E021096941F0F5
:1031900004014FF0E022116107E04FF0E0210969DE
:1031A00021F004014FF0E0221161704710B513487F
:1031B000006840F001001149086008464068104965
:1031C00008400E494860084600680E4908400B490F
:1031D00008600846006820F48020086008464068BF
:1031E00020F4FE0048604FF41F008860FFF755FF91
:1031F0004FF000600449086010BD0000001002405C
:103200000000FFF8FFFFF6FE08ED00E030B587B0E4
:1032100005460C4601210846FFF7B4F9ADF81450F5
:10322000ADF810400020ADF81600ADF8120004A96A
:103230004FF0804000F068FB6020ADF800000120F6
:10324000ADF802000920ADF806000220ADF8080034
:103250006946400700F006FB0121880700F0CDFA1F
:103260000121880700F0D5FA07B030BD0EB5012165
:10327000FE4800F0DDFA00287ED0FFF7C5FC0020F4
:10328000029031E29DF80800C0EBC000F84901EB64
:103290008000407D01909DF8080006286DDA9DF8B9
:1032A0000400032869D1F34800780028FAD19DF87A
:1032B000080008B9012000E000209DF8081001294D
:1032C00000D100E00021084338B1EB4890F85F00DE
:1032D00008B1002000E0032000909DF808000228BB
:1032E00001D1012000E000209DF80810032901D140
:1032F000012100E00021084338B1DF4890F85F0069
:1033000008B1012000E0012000909DF80800042889
:1033100001D1012000E000209DF80810052901D10D
:10332000012100E00021084338B1D34890F85F0044
:1033300008B1032000E000200090CF4832309DF813
:10334000001000EB81000068CB4991F85A10C1F5DC
:10335000967188420BDDC84890F85A00C0F5967106
:10336000C54832309DF8002000EB82000160C24861
:1033700032309DF8001001E0C0E13BE000EB81003D
:103380000168BD4890F85A00A0F5967081420BDAAA
:10339000B94890F85A00A0F59670B74932319DF8B7
:1033A000002001EB820108609DF8080000EBD0715D
:1033B0004910A0EB410161B9AF4932319DF80020BD
:1033C00001EB82000168AC4A92F85A20891A016028
:1033D0000BE0A94932319DF8002001EB8200016821
:1033E000A54A92F85A20114401609DF80800401C3B
:1033F000A24908709DF8080006287DDA9DF80400AF
:10340000042879D19B4800780028FAD11D219DF825
:103410000800C0EBC000964A02EB800041749DF8A2
:10342000080008B9012000E000209DF808100129DB
:1034300000D100E00021084338B18F4890F85F00C8
:1034400008B1002000E0032000909DF80800022849
:1034500001D1012000E000209DF80810032901D1CE
:10346000012100E00021084338B1834890F85F0053
:1034700008B1012000E0012000909DF80800042818
:1034800001D1012000E000209DF80810052901D19C
:10349000012100E00021084338B1774890F85F002F
:1034A00008B1032000E000200090734832309DF8FE
:1034B000001000EB810000686F4991F85A10C1F5C7
:1034C000967188420BDD6C4890F85A00C0F59671F1
:1034D000694832309DF8002000EB820001606648A8
:1034E00032309DF8001000EB81000168624890F8CE
:1034F0005A00A0F5967000E033E081420BDA5E4896
:1035000090F85A00A0F596705B4932319DF8002082
:1035100001EB820108609DF8080000EBD0714910B2
:10352000A0EB410161B9544932319DF8002001EB13
:1035300082000168504A92F85A20891A01600BE013
:103540004D4932319DF8002001EB820001684A4A62
:1035500092F85A20114401609DF80800401C474928
:1035600008709DF80800042814D19DF80400042870
:1035700010D11D219DF80800C0EBC0003C4A02EBB1
:10358000800041743B48007820B101203C4908800C
:103590000C2048809DF80800052814D19DF80400EF
:1035A000042810D11D219DF80800C0EBC000304A4E
:1035B00002EB800041742F48007820B1012030498F
:1035C00008800B2048809DF8080058B99DF8040039
:1035D000032807D12748007820B101202849088016
:1035E000082048809DF8080001280BD19DF80400B0
:1035F000032807D11F48007820B101202049088006
:10360000092048809DF8080002280BD19DF804008D
:10361000032807D11748007820B1012018490880F5
:10362000072048809DF8080003280BD19DF804006E
:10363000032807D10F48007820B1012010490880E5
:10364000062048809DF8080004280BD19DF804004E
:10365000032807D10748007820B1012008490880D5
:103660000C2048809DF8080005280BE0000400406D
:10367000580F002026000020F8140020220000200F
:103680001A0000200BD19DF80400032807D11C4824
:10369000007820B101201B4908800B2048809DF84C
:1036A000080006280BD19DF80400032807D1144810
:1036B000007820B9012013490880082048809DF82F
:1036C000080006280BD19DF80400032807D10C48F8
:1036D000007820B101200B4908800A2048809DF81D
:1036E0000800401CC0B202909DF808000728FFF6B1
:1036F000C9AD0121044800F07DF800BF0EBD0000F7
:10370000260000201A000020000400407FB5054676
:103710000C4601210220FEF735FFADF80850ADF848
:1037200004400020ADF80600ADF80A000122114661
:103730000D4800F08EF801A90B4800F0E5F81D20B7
:103740008DF8000000208DF8010003208DF80200A4
:1037500001208DF803006846FEF77EF9012102483A
:1037600000F04BF87FBD0000000400407FB5054627
:103770000C4601210420FEF705FFADF80850ADF816
:1037800004400020ADF80600ADF80A000122114601
:103790000D4800F05EF801A90B4800F0B5F81E20B6
:1037A0008DF8000000208DF8010003208DF8020044
:1037B00001208DF803006846FEF74EF9012102480A
:1037C00000F01BF87FBD00000008004010B501218B
:1037D000064800F02DF840B10121044800F00AF835
:1037E00003480068401C0249086010BD0008004002
:1037F000540A0020CA430282704721B1028842F075
:103800000102028004E002884FF6FE731A40028033
:10381000704731B1B0F8442042F40042A0F844208F
:1038200005E0B0F84420C2F30E02A0F8442070472F
:1038300030B50246002000230024158A05EA010362
:10384000958905EA010413B10CB1012000E00020C4
:1038500030BD1AB183890B43838102E083898B4396
:103860008381704770B5002400220023058C4FF639
:10387000EF7635400584028C8388048B48F6FF750B
:103880002C404FF6FF452C400D884FF6FF7606EA98
:1038900005252C434FF6DF752A400D8906EA0515EC
:1038A0002A434D8806EA05152A43154DA84202D041
:1038B000144DA8421DD14FF67F752A404D894FF611
:1038C000FF7606EA05152A434FF6BF752A408D8814
:1038D00006EA05152A434FF6FF352B404FF2FF75D8
:1038E0002B408D8906EA85052B43CD8906EA85059F
:1038F0002B4383800483CD880587028470BD00003C
:10390000002C014000340140002202881D4B9842E7
:103910000ED01D4B98420BD0B0F1804F08D01B4BFE
:10392000984205D01A4B984202D01A4B984204D1C3
:103930004FF68F731A404B881A43174B984207D0A3
:10394000164B984204D04FF6FF431A40CB881A43D7
:1039500002808B8883850B8803850A4B98420BD0A5
:10396000094B984208D00E4B984205D00D4B984217
:1039700002D00D4B984201D10B7A0386012383823A
:1039800070470000002C014000340140000400405A
:1039900000080040000C00400010004000140040EF
:1039A00000400140004401400048014010B540F291
:1039B00025511D4800F098F810B31B4800F050F94D
:1039C000C4B21A48008800F40040C8B917480088FB
:1039D00000F4804060B10A2C03D000201349088015
:1039E00020E01248008840F400401049088019E0A7
:1039F0000D2C06D10D48008840F480400B4908800A
:103A000010E00A480088C0F30D0009490C5407482B
:103A10000088401C0549088008460088C72801DD49
:103A20000020088010BD000000380140500A00202E
:103A30003014002021B1828942F40052828104E0D6
:103A400082894DF6FF731A408281704710B5044693
:103A50002048844209D101218803FEF7C3FD0021DB
:103A60004FF48040FEF7BEFD32E01B48844209D18E
:103A700001214804FEF796FD00214FF40030FEF7C7
:103A800091FD25E01548844209D101218804FEF703
:103A900089FD00214FF48020FEF784FD18E01048D6
:103AA000844209D10121C804FEF77CFD00214FF4B6
:103AB0000020FEF777FD0BE00A48844208D101217F
:103AC0000805FEF76FFD00214FF48010FEF76AFD38
:103AD00010BD000000380140004400400048004094
:103AE000004C00400050004070B502460024002306
:103AF0000025002040F66A16B14200D100BFC1F394
:103B0000421501F01F03012606FA03F3012D02D12D
:103B10009689334006E0022D02D1168A334001E037
:103B2000968A33400C12012606FA04F416883440B3
:103B300013B10CB1012000E0002070BDF0B50346C8
:103B4000002400260025002040F66A17B94200D163
:103B500000BF1846C1F3421401F01F06012707FAFF
:103B600006F5012C01D10C3004E0022C01D11030FB
:103B700000E014301AB107682F43076002E00768BD
:103B8000AF430760F0BD00002DE9F04786B0054661
:103B90000E460024A24600BFA1460027B08900B10E
:103BA00000BF2F462C8A4CF6FF700440F088044377
:103BB0002C82AC894EF6F3100440B088318908435A
:103BC000718908430443AC81AC8A4FF6FF4004403E
:103BD000B0890443AC8201A8FEF71AFD1F48874252
:103BE00002D1DDF810A001E0DDF80CA0A88900F4F6
:103BF000004040B10AEBCA0000EB0A1031684900EE
:103C0000B0FBF1F807E00AEBCA0000EB0A103168DC
:103C10008900B0FBF1F86420B8FBF0F00401200942
:103C2000642101FB1089A88900F4004040B13220D2
:103C300000EBC900B0FBF1F000F00700044308E01E
:103C4000322000EB09106421B0FBF1F000F00F000E
:103C500004432C8106B0BDE8F08700000038014025
:103C600001468888C0F30800704700002DE9F04144
:103C700005462C464FF480711248FDF76EFC002675
:103C80001CE0274607F08007802F04D1B9000D48BB
:103C9000FDF765FC04E04FF400710A48FDF75DFC98
:103CA0006006040E4FF480710648FDF758FC4FF48F
:103CB00080710448FDF751FC701CC6B2082EE0DB91
:103CC000BDE8F081000C014010B50446FDF7B6FCDC
:103CD0007820FFF7CBFFFDF7DDFC0020FFF7C6FFE4
:103CE000FDF7D8FC2046FFF7C1FFFDF7D3FCFDF739
:103CF000BDFC10BD10B50446FDF7A0FC7820FFF711
:103D0000B5FFFDF7C7FC4020FFF7B0FFFDF7C2FC91
:103D10002046FFF7ABFFFDF7BDFCFDF7A7FC10BD8C
:103D20000FB4054B10B503A9044A029800F0EEF851
:103D300010BC5DF814FB00000D4800084C0A002080
:103D40000FB4084B10B504A902AA039800F0DEF8DE
:103D5000044602A9002000F070FC204610BC5DF86B
:103D600014FB00003B46000802E008C8121F08C10F
:103D7000002AFAD170477047002001E001C1121FEC
:103D8000002AFBD1704700002DE9FF5F82B00021BF
:103D9000DDE90430020DDDF840B0034318D044F6ED
:103DA0001050A2F2FF3242431514119801281FD07F
:103DB000A5EB0B00401C5FEA000A4FF000064E4FD7
:103DC000DFF83891B046504615D5CAF1000413E02B
:103DD000119801244AA3012801D16FEA0B0102982E
:103DE000119AC0E90031C0E9024206B0BDE8F09F77
:103DF000CBF10000DFE704460021404A491842EBBE
:103E00000450CDE9001012E0E00707D032463B46EF
:103E100040464946FCF707FB8046894632463B460A
:103E200010461946FCF7FFFA06460F466410002CB0
:103E3000EAD1DDE90401DDE90023BAF1000F06DA79
:103E4000FCF7F1FA42464B46FCF7EDFA05E0FCF7C9
:103E50005CFB42464B46FCF758FB04460E460022EC
:103E6000284BFCF7AFFD03D84FF0FF30014607E0C9
:103E70000022254B20463146FCF72EFAFCF78AFD3E
:103E8000102409E0002C0ADB0A220023FCF78CFC3A
:103E9000039B30321A55641E50EA0102F2D1641CB1
:103EA000039AC4F111031444119A012A03D0012288
:103EB00008430DD10AE0084304D000204FF0110B55
:103EC000119072E7A3EB0B056D1E0DE05B4504DD61
:103ED0004FF0000205F1010504E003DA4FF00002A3
:103EE000A5F10105002AECD002981199C0E9023130
:103EF000C0E9004579E70000000014400000F03FF1
:103F0000300000000000F0430000E03F2DE9FF4FCB
:103F100095B09B468946064600250FE2252877D1B5
:103F200000242746F84A0121059400E0044316F8CE
:103F3000013F203B01FA03F01042F7D130782A28E4
:103F400011D06FF02F033078A0F13002092A16D873
:103F5000059A44F0020402EB820203EB4202104491
:103F6000761C0590EFE759F8042B0592002A03DA36
:103F7000504244F40054059044F00204761C30781A
:103F80002E2816D116F8010F44F004042A280DD06B
:103F90006FF02F023078A0F13003092B09D807EB1E
:103FA000870302EB4303C718761CF3E759F8047B39
:103FB000761C30786C280FD006DC4C2817D0682887
:103FC0000DD06A2814D104E0742810D07A280FD1BB
:103FD0000DE044F400140AE044F4801401E044F4D9
:103FE00040147278824202D104F58014761C761C4B
:103FF000307866280BD013DC582877D009DC0028ED
:1040000075D04528F6D04628F4D047281AD19DE12E
:1040100018E0632835D0642879D0652812D195E15D
:10402000702873D008DC6728F1D069286FD06E281B
:104030000DD06F2806D1B5E073282CD0752875D027
:10404000782874D05A46179990476D1C75E1C4F3CF
:104050000250022809D003280DD0D9F800100428F6
:104060000DD00D6009F1040967E1D9F80010EA17D5
:10407000C1E90052F6E7D9F800100D80F2E70D70A3
:10408000F0E719F8041B8DF8001000208DF80100EE
:10409000EA46012003E059F804AB4FF0FF30610716
:1040A0004FF0000102D40DE008F101018846B94249
:1040B0000FDA8045F8DB1AF808100029F4D108E07F
:1040C00008F1010188468142FADB1AF8081000293C
:1040D000F6D105985B46A0EB080721463846179AAB
:1040E00000F094FA284400EB080507E04DE029E1D0
:1040F0000DE01AF8010B5A4617999047B8F10108DC
:10410000F7D25B4621463846179A13E142E00A226D
:104110000092C4F302524FF0000A022A08D059F864
:1041200004CB032A4FEAEC710AD00DE029E02AE023
:1041300009F1070121F00702F2E802C1914609E006
:104140000FFA8CFC4FEAEC71042A03D14FFA8CFC75
:104150004FEAEC71002907DA0A460021DCF1000C75
:1041600061EB02012D2202E0220504D52B228DF8FD
:104170000420012203E0E20701D02022F7E7904665
:1041800059E00A2102E010220DE010214FF0000A50
:1041900000910BE010224FF0000A44F004040827BD
:1041A000009203E008224FF0000A0092C4F302528A
:1041B000022A05D059F804CB0021032A08D009E0CF
:1041C00009F1070121F00702F2E802C1914605E07A
:1041D0001FFA8CFC042A01D10CF0FF0C4FF00008F0
:1041E000220728D5702806D0009B83F0100353EADD
:1041F0000A0305D00EE040228DF80420012208E0D9
:104200005CEA010206D030228DF804208DF805000A
:1042100002229046009B83F0080353EA0A030AD166
:104220005CEA010201D1620705D530228DF8042035
:104230004FF001087F1E582804D034A003900EA828
:1042400002900DE036A0F9E753466046009AFCF76D
:10425000ABFA84460398825C0298401E029002707A
:104260005CEA0100F0D1029806A9081A00F1200AC0
:10427000600702D524F4803400E00127574502DDB1
:10428000A7EB0A0000E0002000EB0A01009005986F
:104290004144401A0590E00306D45B462146179A34
:1042A000059800F0B3F90544002706E001A85A4636
:1042B000C05D179990476D1C7F1C4745F6DBE003F6
:1042C0000CD55B462146179A059800F09FF90544E6
:1042D00004E030205A46179990476D1C0099481EFB
:1042E00000900029F5DC08E0029802995A4600780F
:1042F000491C0291179990476D1CBAF10001AAF16F
:10430000010AF1DC65E10000092801003031323397
:104310003435363738396162636465660000000001
:1043200030313233343536373839414243444546EB
:104330000000000000F058F90544761C3078002891
:104340007FF4ECAD19B02846BDE8F08F620700D4C9
:10435000062709F1070222F0070CFCE80223E146D8
:1043600003F000485FEA080C02D00FF2702C0DE059
:104370005FEA045C02D50FF2682C07E05FEAC47CB8
:1043800002D00FF2602C01E0AFF2700C4FF0FF385A
:1043900023F00043CDF850C065280CD006DC45283A
:1043A00009D046281DD047283DD13DE0662818D0C9
:1043B00067287ED138E00021112F01DB112000E0B9
:1043C000781CCDE9000106A90EA8FFF7DDFCDDE9A8
:1043D0000F010E9A03910021009207F1010A049146
:1043E0004DE04FF000400097CDE9011006A90EA85E
:1043F000FFF7CAFCDDE90F0203920E9B1199002220
:10440000DDF80CA00093049211B9791C00EB010AAD
:10441000B7EB0A0004D4C0F1FF3007F1010A0490A1
:10442000AAEB0700019044E0012F00DA01270021E8
:10443000112F01DD112000E03846CDE9000106A969
:104440000EA8FFF7A1FCDDE90F010E9A03910021F0
:1044500004910092BA4621070CD40399514500DA21
:104460008A46BAF1010F05DD009AAAF10101515CFB
:10447000302908D0B84202DA10F1040F06DA01211F
:10448000CDE9011015E0AAF10101E9E7002805DCFA
:10449000049901440491AAEB000102E0411C51453A
:1044A00000DD8A460499401A401C01904FF00040FC
:1044B0000290200704D40198504501DBCDF8048018
:1044C00000208DF84F0002980DF14F07B0F1004F1A
:1044D00025D02B200E9002984FF0020800280CDA0D
:1044E000404202902D200E9007E00A210298FCF72E
:1044F00045F93031029007F8011DB8F10001A8F12B
:104500000108F2DC02980028EFD1791E0E9808709D
:10451000307800F0200040F0450007F8020D12A8A6
:10452000C01B00F107081498007800B1012000EBCF
:104530000A01019801EBE07105984144401A401EC0
:104540000590E00306D45B462146179A059800F0D3
:104550005DF805441498007818B15A4617999047A9
:104560006D1CE00324D55B462146179A059800F0A0
:104570004DF805441CE00498002807DBDDE9030141
:10458000884203DD0098405C179901E017993020BC
:104590005A469047049805F10105401C0490019883
:1045A000401E019004D12E205A46179990476D1C49
:1045B000BAF10001AAF1010ADDDC05E017F8010BF0
:1045C0005A46179990476D1CB8F10001A8F10108EF
:1045D000F4DC5B462146179A0598ABE62D000000F7
:1045E0002B000000200000002DE9F04104460025CA
:1045F0001E461746880404D405E039462020B047FB
:104600006D1C641EF9D52846BDE8F0812DE9F04106
:10461000044600251E469046C80301D5302700E019
:104620002027880404D505E041463846B0476D1C74
:10463000641EF9D52846BDE8F0810A68531C0B605A
:104640001070704770B50446002516E001200E4931
:1046500008604CF2503090FBF4F6304600F060F801
:1046600000200A49C1F8A8014CF2503090FBF4F642
:10467000304600F055F8681C85B2142094FBF0F029
:10468000A842E3DC70BD0000A801214200002142E5
:1046900010B56FF00400FEF775FD0A4800680A497E
:1046A000B0FBF1F0094908700846007800EB4001C2
:1046B000C1EBC0104FF6FF7101EAC0000449088049
:1046C00010BD0000700A002000127A0016000020C1
:1046D000180000200146114A12884A434FF0E02397
:1046E0005A6100229A611A46126942F001021A6167
:1046F00000BF4FF0E022106900F001021AB100F48F
:104700008032002AF5D04FF0E022126922F0010237
:104710004FF0E0231A6100229A61704718000020D0
:104720000146114A12784A434FF0E0235A610022B1
:104730009A611A46126942F001021A6100BF4FF0F5
:10474000E022106900F001021AB100F48032002A60
:10475000F5D04FF0E022126922F001024FF0E02381
:104760001A6100229A61704716000020F8B50025F2
:1047700000260024214800680A21B0FBF1F084B231
:104780004FF4616094FBF0F085B24FF4616094FBEC
:10479000F0F100FB11403C2190FBF1F086B23C208F
:1047A00094FBF0F100FB114084B22A4614A1164894
:1047B000FFF7C6FA00200C23134A0121009056206F
:1047C000FDF750FC32460EA10F48FFF7B9FA002062
:1047D0000C230D4A012100906520FDF743FC224681
:1047E00007A10948FFF7ACFA00200C23064A012173
:1047F00000907420FDF736FCF8BD0000540A00203C
:1048000025303264000000001C10002000BF054A63
:10481000128802F04002002AF9D0C2B2014B1B1DDF
:104820001A8070470038014030B589B005460C4603
:1048300000203F23102201460090FDF7E8F90120F7
:104840001021CDE900102807010E10232D4A002069
:10485000FDF798F9207810232BA20021009018462C
:10486000FDF700FC29A103C9CDE907012078052344
:1048700007AA002100902020FDF790FB607810230C
:1048800024A2194600901846FDF7ECFB607810232F
:1048900021A2194600902020FDF7E4FB1FA000682C
:1048A00006906078032306AA102100903020FDF7BF
:1048B00075FBA07810231AA2202100901846FDF75E
:1048C000D1FB18A000680590A078042305AA202138
:1048D00000900846FDF762FBE078102312A2302119
:1048E00000901846FDF7BEFB10A103C9CDE90301F6
:1048F000E078052303AA302100902020FDF74EFB2D
:1049000009B030BD46000020312E00000A0B0C0615
:1049100007000000322E0000562000000C060700A1
:10492000332E00000D0E0607342E00000F100C066B
:104930000700000030B585B005460C4620781023EE
:1049400044A2002100900846FDF78CFB42A00068BD
:1049500004902078042304AA002100901020FDF781
:104960001DFB607810233DA2194600900020FDF742
:1049700079FB3BA0006803906078042303AA102110
:1049800000900846FDF70AFB364890F8620088B9A7
:10499000012D06D13448007808B9012002E000203A
:1049A00000E0012010230C22194600905820FDF74A
:1049B00083FA27E02B4890F86200012811D1012DDD
:1049C00006D12948007808B9012002E0002000E063
:1049D000012010236E22194600905820FDF76CFA32
:1049E00010E0012D06D12048007808B9012002E02E
:1049F000002000E0012010236F221946009058206B
:104A0000FDF75AFAA078102318A220210090002068
:104A1000FDF728FB16A000680290A078042302AAE4
:104A2000202100901020FDF7B9FAE078102311A2A0
:104A3000302100900020FDF715FB0FA000680190C9
:104A4000E078042301AA302100901020FDF7A6FA97
:104A500005B030BD312E000015161112322E0000A7
:104A60001718191AF814002023000020332E000014
:104A70001B1C191A342E0000001D1E1F10B50548FE
:104A800090F86400012803D14FF47A70FFF7DAFD43
:104A900010BD0000F81400202DE9F843A04800786C
:104AA000002873D19F480078012800D100E0002041
:104AB0009C490978022901D1012100E00021084325
:104AC000002856D0984890F85F0048B301203D2355
:104AD0007722194600904220FDF799F89249D1F8C3
:104AE0003200FBF78FFD80460022904BFBF70DFD57
:104AF000064600228E4BFBF7EFFB0446FBF7ECFD6E
:104B00008C490880002000900978891CCAB2894924
:104B10000978891EC8B23D231946FDF778F828E0C8
:104B200001203D237722194600904220FDF76FF8BF
:104B30007D49D1F83E00FBF765FD804600227B4BA6
:104B4000FBF7E3FC06460022794BFBF7C5FB044666
:104B5000FBF7C2FD77490880002000900978891C86
:104B6000CAB274490978891EC8B23D231946FDF7B7
:104B70004EF86C480078032801D1012000E00020A5
:104B800068490978042902D1012101E0C3E000212C
:104B9000084300284ED0644890F85F0050B30120CD
:104BA0003E237D22102100901046FDF730F85E492B
:104BB000D1F83600FBF726FD06465F4A5F4BFBF750
:104BC000A4FC044600225E4BFBF72AFC8046FBF760
:104BD00083FD584908800020009008460078801C1A
:104BE000C3B208460078801EC1B27D221046FDF790
:104BF0000EF81FE0012038230222102100901046F9
:104C0000FDF705F84848D0F836000C2190FBF1F08C
:104C1000C0F127004749088000200090084600782E
:104C2000801CC3B208460078801EC1B20222104622
:104C3000FCF7EDFF3B480078052801D1012000E09A
:104C4000002038490978062901D1012100E000211E
:104C50000843002856D0344890F85F0048B301203C
:104C60003D231A46194600900720FCF7D0FF2E4935
:104C7000D1F83E00FBF7C6FC064600222B4BFBF7A3
:104C800044FC044600222F4BFBF726FB8046FBF733
:104C900023FD28490880002000900978891CCAB2A9
:104CA00024490978891EC8B23D231946FCF7AFFF95
:104CB00028E001203D231A46194600900720FCF702
:104CC000A6FF1949D1F83200FBF79CFC8046002270
:104CD000164BFBF71AFC064600221B4BFBF7FCFAAF
:104CE0000446FBF7F9FC134908800020009009787E
:104CF000891CCAB20F490978891EC8B23D231946DA
:104D0000FCF785FFFDF72EF81048006882B20649CF
:104D10000F48FEF73BF9002002490870BDE8F88310
:104D20002600002022000020F81400200000294066
:104D3000004057400200002014AE47E17A942C4016
:104D4000008043400080414000004140580A00205C
:104D500004FC000830B585B004460D4601200F2341
:104D60001F22002100900846FCF751FF20788DF8A3
:104D7000100060788DF81100A0788DF81200E078AE
:104D80008DF813000020042304AA0146009020207F
:104D9000FDF704F901200F237F22002100906020FD
:104DA000FCF735FF2878102329A21946009000202F
:104DB000FDF758F920798DF80C0060798DF80D0019
:104DC000A0798DF80E00E0798DF80F002878042383
:104DD00003AA102100900846FDF7E0F86878102338
:104DE0001CA2202100900020FDF73CF9207A8DF8CC
:104DF0000800607A8DF80900A07A8DF80A00E07A40
:104E00008DF80B006878042302AA2021009010205E
:104E1000FDF7C4F8A87810230FA2302100900020DD
:104E2000FDF720F9207B8DF80400607B8DF80500EC
:104E3000A07B8DF80600E07B8DF80700A87804239E
:104E400001AA302100901020FDF7A8F805B030BD70
:104E5000312E0000322E0000332E00001CB5FFF76B
:104E600017FC4FF4A060FCF72FFE4FF4E13003F085
:104E700005F9472140F2CF70FEF7C8F9472144F603
:104E80001F60FEF743FC41F61F4140F2E730FEF79A
:104E90006DFCFCF79DF8FBF7ADFE02F069FBFDF73A
:104EA000A5FDFBF71FFFFCF741FCFCF78FFCFCF7AF
:104EB000CBFEFCF713FE012038216E23944ACDE986
:104EC000001000210920FCF75DFEFCF74BFF02F00B
:104ED00015FA0AE06420FFF7FDFB8E48006808B968
:104EE000012000E000208B490860FCF747FC002807
:104EF000F0D1894890F86300012802D1FCF714FD35
:104F000001E0FCF7D1FC4FF47A70FFF7E3FB0020DF
:104F10003F237F2201460090FCF779FE00F06AF9FA
:104F2000FCF720FFF3E07D4800884FF4FA7190FB16
:104F3000F1F201FB1200E8B979480078D0B979485C
:104F40000078012801D102F0D9F977480068FBF711
:104F5000DCFB044622460B4674A17648FEF7F0FEC1
:104F600001201023734A132100905020FDF77AF896
:104F7000FCF7F8FE69480088642190FBF1F201FB20
:104F8000120040B96648007828B9FFF7EFFB02F03D
:104F900011FBFCF7E7FE61480088142190FBF1F259
:104FA00001FB1200002861D15D48007800285DD126
:104FB00061498988614A1288881A002801DB014604
:104FC00000E041420A2291FBF2F1002902DD0120BA
:104FD0005B490880584880885849088058480088AC
:104FE000F0B355488088A0F57A70162190FBF1F057
:104FF00054490880484890F85F00C0B100200090F4
:1050000008460088C0F13E00C1B23E23022210468D
:10501000FCF7FDFD012000904A480088C0F13E00E9
:10502000C3B2022210211046FCF7F1FD17E0002068
:10503000009044480088C0F13E00C1B23E237D226A
:105040001046FCF7E4FD012000903E480088C0F1C6
:105050003E00C3B27D2210211046FCF7D8FD00E0CF
:1050600004E0FCF77FFE00203549088036480078D0
:10507000002803DDFFF702FDFFF70EFD284800784A
:1050800041282CD101F02AFFFCF76CFE002024E01F
:105090002E4931F810202049223101EB40010988C6
:1050A0008A4207DD294931F810201B49223101EBE2
:1050B00040010A80254931F810201749891C01EB6D
:1050C000400109888A4207DA204931F81020124944
:1050D000891C01EB40010A80401C0428D8DB1048E1
:1050E00000782D2803D101F007F9FCF73BFE1848A2
:1050F000008818B1FFF7C2FC00F024FB08480078D4
:105100001449087005480088401C044908800AE7D3
:1051100046070020A8012142F81400200C000020BE
:1051200026000020140000201000002025312E321F
:105130006656000028000020480B002000000020D8
:10514000040000200600002022000020380B002070
:105150001A00002027000020FEB507460C46154621
:105160001E4601200F237F22002100900846FCF7F5
:105170004EFD00203F237F2210210090FCF747FDC9
:105180008DF808708DF809408DF80A508DF80B6085
:105190000020042302AA014600902020FCF7FEFE16
:1051A00001203F237322102100901046FCF72FFDB1
:1051B00001203F237F22102100901046FCF727FD9D
:1051C000012006210F23094ACDE900101021742087
:1051D000FCF7D8FC012006210F23054ACDE9001079
:1051E0003A217420FCF7CEFCFEBD00003000002008
:1051F0003B0000202DE9FC5F01200F213623FC4AF3
:10520000CDE9001000210846FCF7BCFCF94890F8F5
:10521000630050B901200C210F23F74ACDE900109B
:1052200001463320FCF7AEFC09E001200C210F23DE
:10523000F24ACDE9001001463320FCF7A3FC01201F
:105240000C210F23EE4ACDE9001001464420FCF763
:1052500099FC00200C212B23EA4ACDE90010012102
:105260005520FCF78FFCFFF781FA02F0A3F9E14823
:1052700090F8620050B9012010213023E24ACDE9B4
:10528000001027210B20FCF77DFC18E0D94890F88E
:105290006200012809D110213023DC4ACDE9001039
:1052A00027210B20FCF76EFC09E0012010213023A0
:1052B000D74ACDE9001027210B20FCF763FC012021
:1052C0001023D4A2132100904620FCF7CBFED24835
:1052D0000068FBF71AFA05462A460B46CFA1D148CB
:1052E000FEF72EFD01201023CE4A132100905020FE
:1052F000FCF7B8FE01201023CBA226210090462007
:10530000FCF7B0FE01201023C8A2262100905020F7
:10531000FCF7A8FE002031210623C64ACDE9001083
:105320000F21FCF72FFC002031210623C14ACDE9D3
:1053300000100F217B20FCF725FC01203F233E229B
:105340003B2100900720FCF762FC01203F237822DC
:105350003B2100904120FCF75AFCA64890F85F00E2
:1053600000287DD000223C212320FCF7D7FB00221F
:105370003E212320FCF7D2FB00223C215D20FCF7DC
:10538000CDFB00223E215D20FCF7C8FB01203D2320
:105390007722194600904220FCF739FC9549D1F854
:1053A0003200FBF72FF982460022A34BFBF7ADF842
:1053B00007460022A14BFAF78FFF0546FBF76DF970
:1053C00004460020A11CCAB2A11E0090C8B23D2311
:1053D0001946FCF71CFC01203E237D221021009081
:1053E0001046FCF714FC8349D1F83600FBF70AF9A4
:1053F0008246934A934BFBF788F807460022924B6C
:10540000FBF70EF80546FBF748F90446002000902C
:10541000A01CC3B2A01EC1B27D221046FCF7F7FB50
:105420008A488088A0F57A70162190FBF1F01FFA67
:1054300080F900200090C9F13E00C1B23E23022253
:105440001046FCF7E4FB01200090C9F13E00C3B216
:10545000022210211046FCF7DAFB01203D2300E078
:1054600023E01A46194600900720FCF7D0FB61495B
:10547000D1F83E00FBF7C6F8824600226E4BFBF7E0
:1054800044F807460022724BFAF726FF0546FBF761
:1054900004F904460020A11CCAB2A11E0090C8B2A3
:1054A0003D231946FCF7B3FB9FE000223C2122205C
:1054B000FCF734FB00223E212220FCF72FFB0022C8
:1054C0003C215D20FCF72AFB00223E215D20FCF7F9
:1054D00025FB01203D231A46194600900720FCF7C2
:1054E00096FB4449D1F83200FBF78CF805460022C0
:1054F000514BFBF70AF807460022564BFAF7ECFE31
:105500008246FBF7CAF804460020A11CCAB2A11EBD
:105510000090C8B23D231946FCF779FB01203E23D9
:105520000222102100901046FCF771FB3149D1F89E
:105530003600FBF767F88246414A424BFAF7E5FF2F
:1055400005460022404BFAF76BFF0746FBF7A5F82C
:10555000044600200090A01CC3B2A01EC1B20222CB
:105560001046FCF754FB39488088A0F57A70162164
:1055700090FBF1F01FFA80F900200090C9F13E0085
:10558000C1B23E237D221046FCF741FB0120009072
:10559000C9F13E00C3B27D2210211046FCF737FB53
:1055A00001203D237722194600904220FCF72FFB73
:1055B0001049D1F83E00FBF725F8074600221E4BA4
:1055C000FAF7A3FF054600221C4BFAF785FE824638
:1055D000FBF763F804460020A11CCAB2A11E00908C
:1055E000C8B23D231946FCF712FBBDE8FC9F000042
:1055F000C2000020F814002096010020280100209D
:10560000AC0100202A0300200A0200206A020020C8
:10561000CA020020540000001000002025312E3264
:1056200066560000280000205200000031322E365D
:105630005600000080030020000029400040574031
:1056400014AE47E17A942C4000804340480B002080
:1056500000804140000041402DE9FC5F06460F46B6
:1056600014461D46DDF8308039462046FAF7BEFD67
:10567000294601904046FAF7B9FD8346394630463F
:10568000FAF7B4FD59460090FAF7B6FD8246019943
:10569000FAF7E4FD81462946FAF756FDBDE8FC9F7E
:1056A0002DE9FC5F04460D4617461E46DDF83080A6
:1056B000B44200DD3446AC4200DA2C46BC4218DA73
:1056C0003846FAF791FF82462846FAF78DFF83465F
:1056D0002046FAF789FF01901748184B5246594661
:1056E00000900198FFF7B8FF8146FAF7A9FF04463A
:1056F00017E03046FAF778FF82463846FAF774FF2B
:1057000083462046FAF770FF01900D480A4B524637
:10571000594600900198FFF79FFF8146FAF790FFE6
:105720000446B8F1000F04D040F6B830001BBDE8C5
:10573000FC9F2046FBE700000080BB4400007A4449
:105740000000FA442DE9F041FCF7CCFCFE4800785B
:1057500041281FD1FD48007841281BD0002017E0C8
:10576000FB4931F81020FB4901EB40010A80F84960
:1057700031F81020F749103101EB40010A80F4495B
:1057800031F81020F349203101EB40010A80401C20
:105790000428E5DB002030E0EE49303101EB8001E8
:1057A0000968EC4A921E92F85A20C2F5967291420C
:1057B0000ADDE849891E91F85A10C1F59672E5494B
:1057C000303101EB80010A60E249303101EB8001A8
:1057D0000A68E049891E91F85A10A1F596718A422B
:1057E0000ADADC49891E91F85A10A1F59671D94A56
:1057F000303202EB80021160401C0428CCDBD5481B
:10580000801E90F85A00082804DD0820D149891E1E
:1058100081F85A00CF48801E90F85A00012804DA17
:105820000220CC49891E81F85A00CB4840880B28B9
:105830007ED1C54800780A280ED1C648801ED0F80F
:105840003200C449891E91F85A100844C149891E82
:10585000C1F8320001F014F9BB4800780B280ED1D2
:10586000BC48801ED0F83600BA49891E91F85A10FB
:105870000144B848801EC0F8361001F00FF9B24854
:1058800000780C280ED1B348801ED0F83A00B149F8
:10589000891E91F85A100144AE48801EC0F83A1093
:1058A00001F00AF9A84800780D280ED1A948801EF9
:1058B000D0F83E00A749891E91F85A100144A54826
:1058C000801EC0F83E1001F005F99F4800780E28B0
:1058D0000ED1A048801ED0F842009E49891E91F842
:1058E0005A1001449B48801EC0F8421001F000F994
:1058F000954800780F280ED19648801ED0F84600B3
:105900009449891E91F85A1001449248801EC0F8AB
:10591000461001F0FBF88C480078102810D18D4813
:10592000801ED0F84A008B49891E91F85A1000E079
:1059300027E101448748801EC0F84A1001F0F4F8BE
:105940008148007811280ED18248801ED0F84E0080
:105950008049891E91F85A1001447E48801EC0F883
:105960004E1001F0EFF87848007812280DD17948F0
:10597000801E90F8520008B9012000E0002075490F
:10598000891E81F8520001F0B7F96F48007813289A
:105990000DD17048801E90F8530008B9012100E035
:1059A00000216C48801E80F8531001F0B3F966485E
:1059B000007814280DD16748801E90F8540008B96B
:1059C000012100E000216348801E80F8541001F09E
:1059D000AFF95D48007815280DD15E48801E90F81B
:1059E000550008B9012100E000215A48801E80F8C6
:1059F000551001F0ABF95448007816280DD15548E0
:105A0000801E90F8560008B9012100E0002151489D
:105A1000801E80F8561001F0A7F94B48007817282F
:105A20000DD14C48801E90F8570008B9012100E0C4
:105A300000214848801E80F8571001F0A3F9424821
:105A4000007818280DD14348801E90F8580008B9F6
:105A5000012100E000213F48801E80F8581001F02D
:105A60009FF93948007819280DD13A48801E90F8DE
:105A7000590008B9012100E000213648801E80F855
:105A8000591001F09BF9304800783D280DD131487C
:105A9000801E90F85F0008B9012000E000202D4929
:105AA000891E81F85F0001F087FB274800783728BE
:105AB0000AD12848801EB0F86000401C2549891E84
:105AC000A1F8600000F082FC1F480078382813D14C
:105AD0002049891ED1F85B00FAF717FE06461F4AD7
:105AE0001F4BFAF7F9FB0446FAF722FE1949891E03
:105AF000C1F85B0000F05CFB1348007834280AD141
:105B00001448801E90F85A00401C1249891E81F8E2
:105B10005A0001F079F90C4800781F2812D10D487D
:105B2000801E90F86200401C0A49891E81F86200BC
:105B3000084690F86200022802DD002081F8620029
:105B400001F02EFB00480DE0260000202700002079
:105B5000380B0020FA1400201A0000207B14AE47F6
:105B6000E17A843F007823280BD1FE4890F8630047
:105B700008B9012000E00020FA4981F8630001F033
:105B800073F9F94840880C287ED1F84800780A2833
:105B90000BD1F448D0F83200F24991F85A10401A6B
:105BA000F049C1F8320000F06BFFF04800780B2894
:105BB0000BD1EC48D0F83600EA4991F85A10411A56
:105BC000E848C0F8361000F069FFE84800780C2873
:105BD0000BD1E448D0F83A00E24991F85A10411A42
:105BE000E048C0F83A1000F067FFE04800780D2860
:105BF0000BD1DC48D0F83E00DA4991F85A10411A2E
:105C0000D848C0F83E1000F065FFD84800780E284C
:105C10000BD1D448D0F84200D24991F85A10411A19
:105C2000D048C0F8421000F063FFD04800780F2839
:105C30000BD1CC48D0F84600CA4991F85A10411A05
:105C4000C848C0F8461000F061FFC8480078102826
:105C50000BD1C448D0F84A00C24991F85A10411AF1
:105C6000C048C0F84A1000F05FFFC0480078112813
:105C70000DD1BC48D0F84E00BA4991F85A10411ADB
:105C8000B848C0F84E1000E0E7E000F05BFFB7480E
:105C9000007812280BD1B34890F8520008B90120BF
:105CA00000E00020AF4981F8520001F025F8AF482C
:105CB000007813280BD1AB4890F8530008B90121A4
:105CC00000E00021A74880F8531001F023F8A7480E
:105CD000007814280BD1A34890F8540008B901218A
:105CE00000E000219F4880F8541001F021F89F48FF
:105CF000007815280BD19B4890F8550008B9012170
:105D000000E00021974880F8551001F01FF89748EF
:105D1000007816280BD1934890F8560008B9012155
:105D200000E000218F4880F8561001F01DF88F48E0
:105D3000007817280BD18B4890F8570008B901213B
:105D400000E00021874880F8571001F01BF88748D1
:105D5000007818280BD1834890F8580008B9012121
:105D600000E000217F4880F8581001F019F87F48C2
:105D7000007819280BD17B4890F8590008B9012107
:105D800000E00021774880F8591001F017F87748B3
:105D900000783D280BD1734890F85F0008B90120C6
:105DA00000E000206F4981F85F0001F005FA6F48BC
:105DB0000078372808D16B48B0F86000401E694968
:105DC000A1F8600000F002FB68480078382811D183
:105DD0006449D1F85B00FAF798FC0646644A654BC3
:105DE000FAF71BFB0446FAF7A3FC5E49C1F85B0017
:105DF00000F0DEF95D480078342808D1594890F861
:105E00005A00401E574981F85A0000F0FDFF5748DC
:105E100000781F2811D1534890F8620020B9022061
:105E2000504981F8620006E04E4890F86200401E3A
:105E30004C4981F8620001F0B3F94C4800782328FE
:105E40000BD1484890F8630008B9012000E0002019
:105E5000444981F8630001F007F843484088082866
:105E60007ED1424800780A2801D100F009FE3F485F
:105E700000780B2801D100F011FE3C4800780C2876
:105E800001D100F019FE394800780D2801D100F049
:105E900021FE364800780E2801D100F029FE334853
:105EA00000780F2801D100F031FE3048007810282A
:105EB00001D100F039FE2D480078112801D100F001
:105EC00041FE2A480078122801D100F015FF27482A
:105ED0000078132801D100F01DFF24480078142811
:105EE00001D100F025FF21480078152801D100F0EC
:105EF0002DFF1E480078162801D100F035FF1B4801
:105F00000078172801D100F03DFF184800781828C4
:105F100001D100F045FF15480078192801D100F0A3
:105F20004DFF124800783D2801D101F045F90F4896
:105F30000078372801D100F049FA0C480078382859
:105F400001D100F035F909480078342801D100F07A
:105F50005BFF064800781F2801D101F021F90BE012
:105F600010E00000F81400201A0000202600002095
:105F70007B14AE47E17A843F0C480078232801D196
:105F800000F072FF0948007809490978884206D074
:105F90000848006882B208490848FCF7F7FFFBF799
:105FA000E1FE002006490880BDE8F08126000020BF
:105FB00027000020580A0020F814002004FC0008E4
:105FC0001A00002008B500203F237F2201460090E0
:105FD000FBF71DFE01203F234022002100901846C0
:105FE000FBF715FE08BD08B500203F237F220146C0
:105FF0000090FBF70CFE01203F234022002100907F
:106000001846FBF704FE08BD08B500203F237F2299
:1060100001460090FBF7FBFD01203F2340220021B9
:1060200000901846FBF7F3FD08BD00002DE9F04F86
:1060300085B006460D4691461F46DDE90F48002013
:106040003F23102211460090FBF7E1FD701E032153
:1060500090FBF1F201FB12000001103000F0FF0A8A
:10606000012010210B463D4ACDE900105146002089
:10607000FBF788FD287810234A46194600901846F9
:10608000FBF7F0FF20788DF8100060788DF8110094
:10609000A0788DF81200E0788DF81300287804239A
:1060A00004AA102100902020FBF778FF68781023C5
:1060B0003A46202100901846FBF7D4FF20798DF84E
:1060C0000C0060798DF80D00A0798DF80E00E07954
:1060D0008DF80F006878042303AA20210090084659
:1060E000FBF75CFFA87810230090302118460E9A29
:1060F000FBF7B8FF207A8DF80800607A8DF8090068
:10610000A07A8DF80A00E07A8DF80B00A8780423B5
:1061100002AA302100902020FBF740FF0020392305
:106120007E22162100907420FBF771FD700190FB18
:10613000F8F0183000F0FF0A700190FBF8F013300F
:1061400000F0FF0B012053467E2259460090742038
:10615000FBF75DFD05B0BDE8F08F000046000020B4
:1061600000B585B007A30FCBCDE90323CDE901012D
:1061700008A000680090694601A8FEF7EBFD05B095
:1061800000BD000036370809020344454647484928
:106190002E4A4B4C0100010008B504A00068009095
:1061A00069460220FEF7C6FB08BD000001010001A0
:1061B00030B587B012A30FCB03AC0FC414A0006896
:1061C000029002A903A8FEF7C5FD1249D1F85B00B1
:1061D000FAF79BFA044622460B460FA11048FDF73A
:1061E000AFFD1048007808B9012000E0002010231E
:1061F0000B4A202100905820FBF734FF07B030BD38
:106200005051080950513E3F383950511112383918
:1062100001000100F814002025322E3266560000DD
:10622000280000202300002008B504A0006800908A
:1062300069460220FEF7F8FA08BD000001010001DE
:1062400000B58BB00EA000680A900EA000680990FF
:106250000DA0006808900DA0006807900CA207CA66
:1062600004AB07C3062004A907AA08ABCDE90021A7
:10627000029009AA0AA90120FFF7D8FE0BB000BDC1
:1062800000010100312E0000322E0000332E0000EC
:1062900036370809505108095253080900B58BB028
:1062A0000EA000680A900EA0006809900DA000687A
:1062B00008900DA0006807900CA207CA04AB07C3A2
:1062C000092004A907AA08ABCDE90021029009AA78
:1062D0000AA90720FFF7AAFE0BB000BD00010100CC
:1062E000372E0000382E0000392E000030313233B6
:1062F000343508092F436B4A2DE9F843002455E053
:106300002C4901EB8401096801F5FA60FAF76CF990
:106310000746284901EB8401096801F57A70FAF70C
:1063200063F98046244931F81400FAF766F981468A
:10633000224800233A46414600904846FFF78CF930
:106340000646FAF796F9C5B21D4800781D49097846
:10635000884201D0012000E000201B49095DA942CC
:1063600001D0012100E000210843E8B10120230110
:106370000C33DAB2C5F13F03D9B223011B1D0090E3
:10638000D8B23F23FBF743FC0020C5F13F01CBB25D
:1063900021010C31CAB22101091D0090C8B20021AF
:1063A000FBF735FC08480555601CC4B2082CA7DB78
:1063B000BDE8F8832A150020480B002000007C422D
:1063C0002600002027000020E806002030B587B016
:1063D00026A30FCB03AC0FC428A00068029002A92B
:1063E00003A8FEF7B7FC26480068FAF78EF90446C2
:1063F00022460B4623A12548FDF7A2FC244800783D
:1064000008B9012000E000201023204A194600901E
:106410005820FBF727FE1F49D1F85B00FAF775F902
:10642000044622460B4617A11848FDF789FC0120B7
:106430001023164A202100905820FBF713FE15491F
:10644000D1F85B00FAF761F9044622460B460DA12C
:106450000E48FDF775FC012010230C4A30210090F6
:106460005820FBF7FFFD07B030BD00005051080970
:1064700050513E3F38395051111238390001010056
:106480001000002025322E32665600002800002021
:1064900023000020F814002000B58BB00EA0006887
:1064A0000A900EA0006809900DA0006808900DA049
:1064B000006807900CA207CA04AB07C3062004A912
:1064C00007AA08ABCDE90021029009AA0AA9022077
:1064D000FFF7ACFD0BB000BD01000100312E000044
:1064E000322E0000332E00003637080950510809BB
:1064F0005253080908B504A00068009069460220BC
:1065000000F05EFF08BD00000101000000B58BB087
:106510000EA000680A900EA0006809900DA0006807
:1065200008900DA0006807900CA207CA04AB07C32F
:10653000092004A907AA08ABCDE90021029009AA05
:106540000AA9FFF773FD0BB000BD000001010000B8
:10655000372E0000382E0000392E00003031323343
:10656000343508092F436B4A1CB500203F237F2296
:1065700001460090FBF74BFB0120102310A20021E5
:1065800000900846FBF76EFD0FA000680190012007
:10659000042301AA002100902820FBF7FFFC012022
:1065A00010230AA2194600900020FBF75BFD012092
:1065B000102309A2202100900020FBF753FD1CBDF1
:1065C0004A323052430000002E25686932303230A2
:1065D0002E31322E3031000056322E3200000000B3
:1065E00000B58BB00EA000680A900EA0006809905C
:1065F0000DA0006808900DA0006807900CA207CAC3
:1066000004AB07C3062004A907AA08ABCDE9002103
:10661000029009AA0AA9FFF709FD0BB000BD00000E
:1066200001010000342E0000352E0000362E00003F
:106630003A3B08093C3D3E3F404166671FB500209C
:106640003F237F2201460090FBF7E1FA13A103C923
:10665000CDE902010120072302AA102100900020A9
:10666000FBF79CFC012010234622202100900020F3
:10667000FBF722FC012010230AA2202100901846DB
:10668000FBF7F0FC09A0006801900120022301AA99
:10669000202100903820FBF781FC1FBD5E40416641
:1066A00067080900456E74657200000064650000AB
:1066B0001CB500203F237F2201460090FBF7A7FA7C
:1066C00005A0006801900120042301AA1821009070
:1066D0002020FBF763FC1CBD40416C2700B58BB04C
:1066E0000EA000680A900EA0006809900DA0006836
:1066F00008900DA0006807900CA207CA04AB07C35E
:10670000092004A907AA08ABCDE90021029009AA33
:106710000AA90320FFF78AFC0BB000BD01010000AD
:10672000312E0000322E0000332E00000001020343
:10673000000104050607080908B504A000680090D8
:1067400069460320FEF770F808BD00000101010052
:1067500030B587B012A30FCB03AC0FC414A00068F0
:10676000029002A903A8FEF7F5FA1249D1F85B00DE
:10677000F9F7CBFF044622460B460FA11048FDF760
:10678000DFFA1048007808B9012000E0002010234B
:106790000B4A302100905820FBF764FC07B030BD55
:1067A0005051080950513E3F383950511112383973
:1067B00001010000F814002025322E326656000038
:1067C000280000202300002000B58BB00EA0006838
:1067D0000A900EA0006809900DA0006808900DA016
:1067E000006807900CA207CA04AB07C3092004A9DC
:1067F00007AA08ABCDE90021029009AA0AA9042042
:10680000FFF714FC0BB000BD00010100342E0000A6
:10681000352E0000362E0000111213142021080915
:106820000001292600B585B007A30FCBCDE90323CE
:10683000CDE9010108A000680090694601A8FEF7B3
:1068400089FA05B000BD0000363708090203444547
:10685000464748492E4A4B4C0101000000B585B01F
:1068600007A30FCBCDE90323CDE9010108A0006800
:106870000090694601A8FEF76DFA05B000BD000062
:106880005253080952533839525354552E4A5B5CBF
:106890000101000000B585B007A30FCBCDE90323AC
:1068A000CDE9010108A000680090694601A8FEF743
:1068B00051FA05B000BD000052530809525338394F
:1068C000525354552E4A5B5C0001010000B585B05F
:1068D00007A30FCBCDE90323CDE9010108A0006890
:1068E0000090694601A8FEF735FA05B000BD00002A
:1068F0005253080952533839525354552E4A5B5C4F
:106900000100010000B58BB00EA000680A900EA037
:10691000006809900DA0006808900DA0006807901D
:106920000CA207CA04AB07C3062004A907AA08AB38
:10693000CDE90021029009AA0AA90320FFF776FBFE
:106940000BB000BD01010000312E0000322E00000E
:10695000332E0000363708095051080952530809F0
:1069600008B504A0006800906946002000F028FDEA
:1069700008BD00000001010000B58BB00EA000684A
:106980000A900EA0006809900DA0006808900DA064
:10699000006807900CA207CA04AB07C3092004A92A
:1069A00007AA08ABCDE90021029009AA0AA905208F
:1069B000FFF73CFB0BB000BD01000100342E0000CE
:1069C000352E0000362E0000111213142021080964
:1069D0000001292608B504A000680090694600203F
:1069E000FDF722FF08BD00000001010100B585B0E0
:1069F00007A30FCBCDE90323CDE9010108A000686F
:106A00000090694601A8FEF7A5F905B000BD000099
:106A10003A3B08093A3B56573A3B582459071B5A08
:106A20000101000000B58BB00EA000680A900EA016
:106A3000006809900DA0006808900DA000680790FC
:106A40000CA207CA04AB07C3092004A907AA08AB14
:106A5000CDE90021029009AA0AA90120FFF7E6FA70
:106A60000BB000BD00010100312E0000322E0000ED
:106A7000332E000000010203000104050607080987
:106A80001CB504A103C9CDE900010121684600F04D
:106A9000DFFD1CBD00010101010101011CB504A1C4
:106AA00003C9CDE900010221684600F0D1FD1CBDFB
:106AB00001000101010101011CB504A103C9CDE9D7
:106AC00000010321684600F0C3FD1CBD0101000167
:106AD000010101011CB504A103C9CDE90001042194
:106AE000684600F0B5FD1CBD010101000101010176
:106AF0001CB504A103C9CDE900010521684600F0D9
:106B0000A7FD1CBD01010101000101011CB504A18B
:106B100003C9CDE900010621684600F099FD1CBDBE
:106B200001010101010001011CB504A103C9CDE966
:106B300000010721684600F08BFD1CBD0101010129
:106B4000010100011CB504A103C9CDE90001082120
:106B5000684600F07DFD1CBD01010101010101003D
:106B600000B58BB00EA000680A900EA000680990D6
:106B70000DA0006808900DA0006807900CA207CA3D
:106B800004AB07C3092004A907AA08ABCDE900217B
:106B9000029009AA0AA90620FFF748FA0BB000BD27
:106BA00001010000342E0000352E0000362E0000BA
:106BB0001112131420210809000129261CB504A173
:106BC00003C9CDE900010121684600F0B5FF1CBDF5
:106BD00000010101010101011CB504A103C9CDE9B6
:106BE00000010221684600F0A7FF1CBD0100010161
:106BF000010101011CB504A103C9CDE90001032174
:106C0000684600F099FF1CBD01010001010101016E
:106C10001CB504A103C9CDE900010421684600F0B8
:106C20008BFF1CBD01010100010101011CB504A184
:106C300003C9CDE900010521684600F07DFF1CBDB8
:106C400001010101000101011CB504A103C9CDE945
:106C500000010621684600F06FFF1CBD0101010123
:106C6000010001011CB504A103C9CDE90001072100
:106C7000684600F061FF1CBD010101010101000136
:106C80001CB504A103C9CDE900010821684600F044
:106C900053FF1CBD010101010101010000B58BB0D2
:106CA0000EA000680A900EA0006809900DA0006870
:106CB00008900DA0006807900CA207CA04AB07C398
:106CC000092004A907AA08ABCDE90021029009AA6E
:106CD0000AA90220FFF7AAF90BB000BD01000100CC
:106CE000312E0000322E0000332E0000000102037E
:106CF00000010405060708091CB504A103C9CDE974
:106D000000010121684601F005F81CBD00010101E8
:106D1000010101011CB504A103C9CDE90001022153
:106D2000684600F0F7FF1CBD0100010101010101EF
:106D30001CB504A103C9CDE900010321684600F098
:106D4000E9FF1CBD01010001010101011CB504A105
:106D500003C9CDE900010421684600F0DBFF1CBD3A
:106D600001010100010101011CB504A103C9CDE924
:106D700000010521684600F0CDFF1CBD01010101A5
:106D8000000101011CB504A103C9CDE900010621E0
:106D9000684600F0BFFF1CBD0101010101000101B7
:106DA0001CB504A103C9CDE900010721684600F024
:106DB000B1FF1CBD01010101010100011CB504A1CD
:106DC00003C9CDE900010821684600F0A3FF1CBDFE
:106DD000010101010101010008B504A00068009053
:106DE00069460320FDF7A6FD08BD00000101010072
:106DF00008B504A00068009069460120FDF714FD65
:106E000008BD00000100010100B587B00FA30FCB42
:106E1000CDE90523CDE9030110A00068029002A985
:106E200003A8FDF797FF0E48007808B9012000E09D
:106E300000201021CDE900100A4890F85A200123C3
:106E40005820FBF7C5F807B000BD00003637080929
:106E500002034445464748492E4A4B4C0001010075
:106E600023000020F814002008B504A0006800905A
:106E70006946012000F0A4FA08BD000001000100ED
:106E800000B58BB00EA000680A900EA000680990B3
:106E90000DA0006808900DA0006807900CA207CA1A
:106EA00004AB07C3062004A907AA08ABCDE900215B
:106EB000029009AA0AA90520FFF7B8F80BB000BD97
:106EC00001000100342E0000352E0000362E000097
:106ED0003A3B08093C3D3E3F404166671CB50120F6
:106EE000102350A2002100900220FBF7BBF80120E4
:106EF0001021CDE900104C484288042300211220C3
:106F0000FBF766F801201021CDE900104648428ABF
:106F1000042300213820FBF75BF801201021CDE984
:106F200000104148428C042300215F20FBF750F8F9
:106F3000012010233DA2194600900220FBF792F891
:106F400001201021CDE90010374882880423122047
:106F5000FBF73EF801201021CDE900103248828A6B
:106F600004233820FBF734F801201021CDE900106C
:106F70002D48828C04235F20FBF72AF80120102380
:106F80002BA2202100900220FBF76CF80120102199
:106F9000CDE900102448C288042320211220FBF7E9
:106FA00017F801201021CDE900101F48C28A0423E0
:106FB00020213820FBF70CF801201021CDE900102A
:106FC0001948C28C042320215F20FBF701F801201F
:106FD000102318A2302100900220FBF743F8012073
:106FE0001021CDE90010104802890423302112201D
:106FF000FAF7EEFF01201021CDE900100A48028BBC
:10700000042330213820FAF7E3FF01201021CDE9D5
:1070100000100548028D042330215F20FAF7D8FFC5
:107020001CBD0000313A0000F8140020323A000084
:10703000333A0000343A000000B589B000203F2305
:107040007F2201460090FAF7E2FD012010232BA2D7
:10705000002100900846FBF705F829A103C9CDE9F6
:1070600007010120062307AA002100901020FAF74B
:1070700095FF0120102324A2002100907020FAF730
:10708000F1FF22A003C8CDE905010120062305AACE
:10709000102100900846FAF781FF012010231DA25D
:1070A000202100900020FAF7DDFF1BA103C9CDE9E4
:1070B00003010120072303AA202100901020FAF7E2
:1070C0006DFF012010234622302100900020FAF7A6
:1070D000F3FE0120102312A2302100901846FAF787
:1070E000C1FF11A0006802900120022302AA3021F2
:1070F00000903820FAF752FF09B000BD312E000091
:107100005D5E2C2D5F6000002C00000061623A3B48
:1071100000010000322E00005D5E11124A63500033
:10712000456E7465720000006465000008B504A037
:107130000068009069460020FDF7FCFB08BD0000D8
:107140000001010100B58BB00EA000680A900EA0EE
:10715000006809900DA0006808900DA000680790D5
:107160000CA207CA04AB07C3092004A907AA08ABED
:10717000CDE90021029009AA0AA90820FEF756FFCE
:107180000BB000BD01000100372E0000382E0000BA
:10719000392E000030313233343508092F436B4A21
:1071A00008B504A00068009069460120FDF7C2FB05
:1071B00008BD00000100010100B587B01DA30FCB81
:1071C000CDE90523CDE903011EA00068029002A9C4
:1071D00003A8FDF7BFFD1C4890F85F0068B11B488D
:1071E000007808B9012000E0002010232A22194667
:1071F00000905820FAF760FE0CE01448007808B9B7
:10720000012000E0002010232B2219460090582076
:10721000FAF752FE0D48007808B9012000E000207E
:1072200010236D22194600906820FAF745FE07B03A
:1072300000BD00003A3B08093A3B56573A3B5824F8
:1072400059071B5A00010100F814002023000020F8
:1072500000B585B007A30FCBCDE90323CDE901012C
:1072600008A000680090694601A8FDF773FD05B00D
:1072700000BD00003A3B08093A3B56573A3B5824B8
:1072800059071B5A0100010000B58BB00EA0006821
:107290000A900EA0006809900DA0006808900DA04B
:1072A000006807900CA207CA04AB07C3062004A914
:1072B00007AA08ABCDE90021029009AA0AA9042077
:1072C000FEF7B4FE0BB000BD00010100342E00003B
:1072D000352E0000362E00003A3B08093C3D3E3F6B
:1072E0004041666710B50246012000E050430B1E86
:1072F000A1F10104E1B2F9D110BD000010B50120E7
:10730000044908600520FDF7E5F900200249C1F8AD
:10731000A80110BDA80121420000214200201DE06B
:107320000022244901EB40010A8040F2FF7221490A
:10733000103101EB40010A8040F6FF721D492031F7
:1073400001EB40010A8000221A49303101EB800133
:107350000A600122174950310A54401C0828DFDB1B
:1073600002201449891E81F85A001348C1F85B00B5
:10737000012081F85F004FF47A70A1F860000020CE
:1073800081F86200012081F8630081F8640081F8CF
:1073900065000A48C1F86600002081F86A000520EF
:1073A00081F86B00012081F86C00002081F86D00ED
:1073B00070470000FA140020CDCC6C40CDCC3C418D
:1073C00030B587B005460C4601200F231F2200214F
:1073D00000900846FAF71BFC3EA0006806900020CB
:1073E000042306AA014600902020FAF7D7FD0120C9
:1073F0000F237F22002100906020FAF708FC2078FC
:10740000102335A2194600900020FAF72BFE34A075
:10741000006805902078022305AA102100902820FA
:10742000FAF7BCFD607810232EA2202100900020E6
:10743000FAF718FE2CA0006804906078042304AAD0
:10744000202100901020FAF7A9FD284890F8630049
:10745000012815D1012D06D12548007808B9012051
:1074600002E0002000E001200E211023214ACDE996
:10747000001020215820FAF785FBFAF755FA14E09E
:10748000012D06D11A48007808B9012002E0002039
:1074900000E001200E211023174ACDE90010202121
:1074A0005820FAF76FFBFAF7FFF9A078102313A220
:1074B000302100900020FAF7D5FD11A0006803905C
:1074C000A078042303AA302100901020FAF766FD6B
:1074D00007B030BD20210809312E50504D0000006A
:1074E00020210000322E000023242526F81400203D
:1074F000230000208A000020A6000020332E000078
:107500002526272830B589B0002400BF25E044B9DE
:10751000002001AA02F8140000216000401C115450
:1075200019E0082C0FDC601E104931F81000000A29
:1075300001AA02F81400601E31F81000C1B2600008
:10754000401C115407E0FF2001AA02F81400FF219B
:107550006000401C1154601C84B2102CD7DB01A8C1
:10756000FAF716FA0546284609B030BD480B002048
:1075700010B50D48006882B20C490D48FBF7F2FCCB
:107580000A48008841F2111188420BD00846074989
:107590000880FFF7C3FE0448006882B2034904482C
:1075A000FBF7F4FC10BD0000580A0020F81400207E
:1075B00004FC00081CB5002400BF3DE0201D20494C
:1075C00031F8100040F2E24188420EDA0120122127
:1075D000CDE9001004EB440189000E31C8B20B2341
:1075E000184A1221FAF7CEFA24E0201D144931F886
:1075F000100040F2D66188420EDA01201221CDE956
:10760000001004EB440189000E31C8B20B230E4A6E
:107610001221FAF7B7FA0DE001201221CDE900108E
:1076200004EB440189000E31C8B20B23074A122132
:10763000FAF7A8FA601CC4B2042CBFDB1CBD000022
:10764000480B0020C2010020DA010020F2010020D6
:107650007CB504460D4620781023FEA20021009040
:107660000120FAF7FFFC012D17D1FB48D0F832605A
:10767000FA48007808B9012000E000201021CDE987
:107680000010002E01DB304600E07042024603236A
:1076900000211E20FAF79CFC11E0EF48D0F8326080
:1076A00001201021CDE90010002E01DB304600E062
:1076B00070420246032300211E20FAF789FCE648A7
:1076C000D0F83200002808DA01201023E4A20021BB
:1076D00000903620FAF7C6FC07E001201023E1A253
:1076E000002100903620FAF7BDFC60781023DEA25E
:1076F000194600900120FAF7B5FC022D17D1D648A3
:10770000D0F83660D548007808B9012000E00020A4
:107710001021CDE90010002E01DB304600E0704260
:107720000246032310211E20FAF752FC11E0CA483A
:10773000D0F8366001201021CDE90010002E01DBC9
:10774000304600E070420246032310211E20FAF763
:107750003FFCC148D0F83600002808DA0120102389
:10776000BFA2194600903620FAF77CFC07E0012002
:107770001023BCA2194600903620FAF773FCA078BB
:107780001023BAA2202100900120FAF76BFC032DF0
:1077900017D1B148D0F83A60B048007808B9012054
:1077A00000E000201021CDE90010002E01DB304662
:1077B00000E070420246032320211E20FAF708FC55
:1077C00011E0A548D0F83A6001201021CDE9001061
:1077D000002E01DB304600E07042024603232021E8
:1077E0001E20FAF7F5FB9C48D0F83A00002808DA8A
:1077F000012010239AA2202100903620FAF732FCB3
:1078000007E00120102397A2202100903620FAF7EC
:1078100029FCE078102396A2302100900120FAF78D
:1078200021FC042D17D18C48D0F83E608B4800789D
:1078300008B9012000E000201021CDE90010002E41
:1078400001DB304600E070420246032330211E2057
:10785000FAF7BEFB11E08048D0F83E60012010210D
:10786000CDE90010002E01DB304600E070420246F8
:10787000032330211E20FAF7ABFB7748D0F83E00F7
:10788000002808DA0120102375A23021009036204C
:10789000FAF7E8FB07E00120102372A230210090E4
:1078A0003620FAF7DFFB2079102372A20021009026
:1078B0004220FAF7D7FB052D17D16748D0F8426070
:1078C0006648007808B9012000E000201021CDE9C9
:1078D0000010002E01DB304600E070420246032318
:1078E00000215F20FAF774FB11E05B48D0F842609A
:1078F00001201021CDE90010002E01DB304600E010
:1079000070420246032300215F20FAF761FB5248D0
:10791000D0F84200002808DA0120102350A20021EC
:1079200000907720FAF79EFB07E0012010234DA27C
:10793000002100907720FAF795FB607910234EA282
:10794000194600904220FAF78DFB062D17D14248C8
:10795000D0F846604148007808B9012000E00020D6
:107960001021CDE90010002E01DB304600E070420E
:107970000246032310215F20FAF72AFB11E0364864
:10798000D0F8466001201021CDE90010002E01DB67
:10799000304600E070420246032310215F20FAF7D0
:1079A00017FB2D48D0F84600002808DA01201023E4
:1079B0002BA2194600907720FAF754FB07E001202C
:1079C000102328A2194600907720FAF74BFBA079E4
:1079D00010232AA2202100904220FAF743FB072D12
:1079E00017D11D48D0F84A601C48007808B901201A
:1079F00000E000201021CDE90010002E01DB304610
:107A000000E070420246032320215F20FAF7E0FAEB
:107A100011E01148D0F84A6001201021CDE9001092
:107A2000002E01DB304600E0704202460323202195
:107A30005F20FAF7CDFA0848D0F84A0000281FDA8C
:107A40000120102306A2202100907720FAF70AFBDC
:107A50001FE0000043483100F814002023000020FC
:107A60002D0000002B000000434832004348330043
:107A70004348340043483500434836004348370004
:107A800001201023AFF22402202100907720FAF782
:107A9000E9FAE079102325A2302100904220FAF77C
:107AA000E1FA082D17D12248D0F84E60214800781D
:107AB00008B9012000E000201021CDE90010002EBF
:107AC00001DB304600E070420246032330215F2094
:107AD000FAF77EFA11E01648D0F84E600120102126
:107AE000CDE90010002E01DB304600E07042024676
:107AF000032330215F20FAF76BFA0D48D0F84E00CF
:107B0000002809DA01201023AFF2AC0230210090E6
:107B10007720FAF7A7FA08E001201023AFF2BC02A1
:107B2000302100907720FAF79DFA7CBD4348380059
:107B3000F81400202300002038B504460D462078B4
:107B4000102363A2002100900120FAF78BFA012D87
:107B500006D16048007808B9012002E0002000E06A
:107B6000012010235CA2002100902820FAF77AFA65
:107B70006078102359A2194600900120FAF772FA92
:107B8000022D06D15348007808B9012002E00020F8
:107B900000E00120102352A2194600902820FAF795
:107BA00061FAA07810234FA2202100900120FAF75B
:107BB00059FA032D06D14748007808B9012002E0A0
:107BC000002000E00120102347A22021009028205F
:107BD000FAF748FAE078102344A2302100900120FF
:107BE000FAF740FA042D06D13A48007808B9012086
:107BF00002E0002000E0012010233DA2302100908F
:107C00002820FAF72FFA207910233AA200210090B9
:107C10004220FAF727FA052D06D12E48007808B938
:107C2000012002E0002000E00120102332A2002108
:107C300000906920FAF716FA607910232FA21946EE
:107C400000904220FAF70EFA062D06D1214800785E
:107C500008B9012002E0002000E00120102328A242
:107C6000194600906920FAF7FDF9A079102325A2A2
:107C7000202100904220FAF7F5F9072D06D115488A
:107C8000007808B9012002E0002000E00120102364
:107C90001DA2202100906920FAF7E4F9E079102371
:107CA0001AA2302100904220FAF7DCF9082D06D103
:107CB0000848007808B9012002E0002000E0012017
:107CC000102313A2302100906920FAF7CBF938BDB8
:107CD000434831002300002059310000434832005E
:107CE0005932000043483300593300004348340000
:107CF00059340000434835004B31000043483600FA
:107D00004B320000434837004B33000043483800F3
:107D10004B3400007CB505460C4628781023CBA2D6
:107D2000002100900120FAF79DF9C94890F852000F
:107D300098B1012C06D1C748007808B9012002E0AB
:107D4000002000E0012007211523C34ACDE90010DF
:107D500004211E20F9F716FF12E0012C06D1BD48C0
:107D6000007808B9012002E0002000E0012007218E
:107D70001523BA4ACDE9001004211E20F9F702FFAD
:107D800068781023B6A2194600900120FAF76AF924
:107D9000AF4890F8530098B1022C06D1AD48007856
:107DA00008B9012002E0002000E00120072115238E
:107DB000A94ACDE9001014211E20F9F7E3FE12E0D4
:107DC000022C06D1A348007808B9012002E0002067
:107DD00000E0012007211523A04ACDE9001014215D
:107DE0001E20F9F7CFFEA87810239EA22021009034
:107DF0000120FAF737F9964890F8540098B1032C0F
:107E000006D19448007808B9012002E0002000E083
:107E1000012007211523904ACDE9001024211E20BE
:107E2000F9F7B0FE12E0032C06D18A48007808B9B1
:107E3000012002E0002000E0012007211523874AED
:107E4000CDE9001024211E20F9F79CFEE8781023CC
:107E500085A2302100900120FAF704F97C4890F8BF
:107E6000550098B1042C06D17A48007808B9012051
:107E700002E0002000E0012007211523764ACDE929
:107E8000001034211E20F9F77DFE12E0042C06D1EB
:107E90007048007808B9012002E0002000E00120CD
:107EA000072115236D4ACDE9001034211E20F9F772
:107EB00069FE287910236DA2002100904220FAF774
:107EC000D1F8634890F8560098B1052C06D1614866
:107ED000007808B9012002E0002000E0012007211D
:107EE00015235D4ACDE9001004215E20F9F74AFE12
:107EF00012E0052C06D15748007808B9012002E0AD
:107F0000002000E0012007211523544ACDE900108C
:107F100004215E20F9F736FE6879102354A2194631
:107F200000904220FAF79EF8494890F8570098B11F
:107F3000062C06D14748007808B9012002E000204D
:107F400000E0012007211523434ACDE90010142148
:107F50005E20F9F717FE12E0062C06D13D480078A6
:107F600008B9012002E0002000E0012007211523CC
:107F70003A4ACDE9001014215E20F9F703FEA879F2
:107F800010233CA2202100904220FAF76BF83048E1
:107F900090F8580098B1072C06D12E48007808B9FF
:107FA000012002E0002000E00120072115232A4AD9
:107FB000CDE9001024215E20F9F7E4FD12E0072C42
:107FC00006D12448007808B9012002E0002000E032
:107FD000012007211523214ACDE9001024215E202C
:107FE000F9F7D0FDE879102323A230210090422038
:107FF000FAF738F8164890F8590098B1082C06D1CD
:108000001448007808B9012002E0002000E00120B7
:1080100007211523104ACDE9001034215E20F9F71D
:10802000B1FD12E0082C06D10A48007808B90120F9
:1080300002E0002000E0012007211523074ACDE9D6
:10804000001034215E20F9F79DFD7CBD43483100CE
:10805000F814002023000020660000207800002093
:108060004348320043483300434834004348350016
:1080700043483600434837004348380010B586B0BF
:108080000446012144F20900FAF79CFA0121042078
:10809000F9F712FA2248FBF7D9FC4020ADF814009A
:1080A00003208DF8160018208DF8170005A91D482B
:1080B000F9F776F98020ADF8140004208DF8170048
:1080C00005A91848F9F76CF901940020ADF80800EB
:1080D000ADF80A00ADF80C00ADF810000C20ADF8BA
:1080E0000E0001A90E48FBF74FFD25208DF800007A
:1080F00003208DF801008DF8020001208DF80300A7
:108100006846F9F7A9FC012240F225510448FBF723
:1081100015FD01210248FBF78DFC06B010BD0000E3
:1081200000380140000C014048000000000C0140F4
:10813000200000000800000048000000000C014082
:10814000100000000800000048000000000C014082
:10815000080000000800000048000000000801407E
:1081600000800000040000004800000000080140FA
:10817000001000000400000048000000000801405A
:10818000000800000400000048000000000C01404E
:1081900000080000080000003443101001344310B0
:1081A00010010000000000000000000000000000BE
:1081B00000003F40000000000000000030004000D0
:1081C00030004000000009000BC03D000BC03D0026
:1081D000090018C024407FE02240318000001800D0
:1081E00024C01B000D803240018003801C402740CA
:1081F0001C800740004010006000000000000000EC
:1082000000000000000000001F802040402000000F
:10821000402020401F8000000000090006001F8051
:10822000060009000000040004003F800400040070
:1082300000000010006000000000000000000400CA
:1082400004000400040004000000000000400000DE
:10825000000000000000002001C0060038004000BF
:1082600000001F802040204020401F8000000000B0
:1082700010403FC000400000000018C021402240D4
:1082800024401840000010802040244024401B80DF
:10829000000002000D0011003FC0014000003C80C2
:1082A000244024402440238000001F802440244098
:1082B0003440038000003000200027C03800200038
:1082C00000001B802440244024401B8000001C0030
:1082D00022C0224022401F80000000000000084011
:1082E000000000000000000000000460000000002A
:1082F0000000000004000A00110020804040090036
:108300000900090009000900000000004040208029
:1083100011000A0004001800200023402400180067
:1083200000001F802040274029401F4000000040DF
:1083300007C039000F0001C0004020403FC024406A
:1083400024401B8000001F802040204020403080BF
:10835000000020403FC0204020401F8000002040FF
:108360003FC024402E4030C0000020403FC0244089
:108370002E00300000000F0010802040224033808B
:10838000020020403FC0040004003FC020402040C5
:1083900020403FC0204020400000006020202020DE
:1083A0003FC02000200020403FC024400B0030C0D0
:1083B000204020403FC020400040004000C03FC05F
:1083C0003C0003C03C003FC0000020403FC00C40C8
:1083D00023003FC020001F802040204020401F80FD
:1083E000000020403FC024402400180000001F80EF
:1083F0002140214020E01FA0000020403FC0244039
:10840000260019C0004018C024402440224031807A
:108410000000300020403FC020403000000020001D
:108420003F80004000403F80200020003E0001C00F
:10843000070038002000380007C03C0007C03800A3
:108440000000204039C0060039C020400000200054
:10845000384007C0384020000000304021C026408E
:10846000384020C00000000000007FE04020402095
:108470000000000070000C000380004000000000BD
:10848000402040207FE0000000000000200040006D
:10849000200000000000001000100010001000106C
:1084A000001000000000400000000000000000007C
:1084B00002800540054003C0004020003FC004404A
:1084C0000440038000000000038004400440064094
:1084D000000000000380044024403FC00040000032
:1084E00003800540054003400000000004401FC019
:1084F000244024402000000002E0055005500650B2
:10850000042020403FC00440040003C0004000009D
:10851000044027C0004000000000001000100410BC
:1085200027E00000000020403FC00140070004C0D9
:108530000440204020403FC000400040000007C0F1
:10854000040007C0040003C00000044007C004404A
:10855000040003C000400000038004400440038086
:108560000000041007F004500440038000000000E5
:1085700003800440045007F00010044007C002408C
:10858000040004000000000006400540054004C04F
:108590000000000004001F800440004000000400B0
:1085A00007800040044007C000400400070004C0EA
:1085B000018006000400060001C0070001C006009B
:1085C0000000044006C0010006C004400000041082
:1085D000071004E00180060004000000044005C00C
:1085E0000640044000000000000004007BE0402042
:1085F0000000000000000000FFF00000000000008C
:1086000040207BE0040000000000400080004000AB
:1086100020002000400000000000000000000000DA
:108620000000000000000000000000001FCC000C53
:10863000000000000000000008003000600008009A
:10864000300060000000022003FC1E20022003FC1A
:108650001E200220000000000E1811043FFF1084AD
:108660000C78000000000F0010840F3800C007785D
:1086700018840078000000780F8410C411240E982C
:1086800000E400840008080068007000000000009A
:1086900000000000000000000000000007E01818C3
:1086A000200440020000000040022004181807E0E7
:1086B0000000000000000240024001800FF0018035
:1086C0000240024000000080008000800FF800801F
:1086D0000080008000000001000D000E000000007E
:1086E000000000000000000000800080008000808A
:1086F0000080008000800000000C000C00000000E2
:10870000000000000000000000060018006001806A
:10871000060018002000000007F0080810041004EC
:10872000080807F000000000080408041FFC00040B
:1087300000040000000000000E0C1014102410446F
:1087400011840E0C000000000C1810041104110418
:1087500012880C700000000000E0032004240824AC
:108760001FFC0024000000001F9810841104110455
:10877000108810700000000007F008881104110430
:1087800018880070000000001C00100010FC13008E
:108790001C001000000000000E38114410841084EA
:1087A00011440E38000000000700088C10441044EB
:1087B000088807F00000000000000000030C030C14
:1087C00000000000000000000000000101060000A1
:1087D00000000000000000000080014002200410A2
:1087E00008081004000002200220022002200220BB
:1087F00002200220000000001004080804100220DB
:1088000001400080000000000E001200100C106CEF
:1088100010800F00000003E00C1813E4142417C4A8
:10882000082807D000000004003C03C41C40074097
:1088300000E4001C000410041FFC110411041104C6
:108840000E880070000003E00C18100410041004DF
:1088500010081C10000010041FFC10041004100469
:10886000080807F0000010041FFC1104110417C4CD
:1088700010040818000010041FFC1104110017C098
:1088800010000800000003E00C181004100410444D
:108890001C780040000010041FFC10840080008041
:1088A00010841FFC10040000100410041FFC1004AE
:1088B00010040000000000030001100110011FFE61
:1088C00010001000000010041FFC11040380146449
:1088D000181C1004000010041FFC10040004000405
:1088E0000004000C000010041FFC1F0000FC1F000F
:1088F0001FFC1004000010041FFC0C04030000E027
:1089000010181FFC100007F00808100410041004D1
:10891000080807F0000010041FFC1084108010806D
:1089200010800F00000007F0081810241024101CFD
:10893000080A07F2000010041FFC1104110011C006
:1089400011300E0C000400000E1C11041084108461
:1089500010441C3800001800100010041FFC100404
:1089600010001800000010001FF81004000400049C
:1089700010041FF8100010001E0011E0001C007011
:1089800013801C0010001FC0103C00E01F0000E01E
:10899000103C1FC000001004180C163401C001C0A8
:1089A0001634180C100410001C00130400FC1304EF
:1089B0001C00100000000804101C10641084130434
:1089C0001C04101800000000000000007FFE4002A0
:1089D000400240020000000030000C0003800060F4
:1089E000001C0003000000004002400240027FFE25
:1089F00000000000000000000000200040004000D7
:108A00004000200000000001000100010001000101
:108A100000010001000100004000400020000000B3
:108A200000000000000000000098012401440144FF
:108A3000014400FC000410001FFC00880104010434
:108A4000008800700000000000700088010401042C
:108A50000104008800000000007000880104010487
:108A600011081FFC0004000000F801440144014407
:108A7000014400C800000000010401040FFC1104BF
:108A8000110411001800000000D601290129012954
:108A900001C90106000010041FFC00840100010050
:108AA000010400FC000400000104190419FC000486
:108AB0000004000000000000000300010101190192
:108AC00019FE0000000010041FFC0024004001B447
:108AD000010C010400000000100410041FFC00043D
:108AE000000400000000010401FC0104010001FC7D
:108AF0000104010000FC010401FC008401000100EC
:108B0000010400FC0004000000F801040104010459
:108B1000010400F80000010101FF008501040104C7
:108B2000008800700000000000700088010401044B
:108B3000010501FF00010104010401FC008401049E
:108B4000010001800000000000CC01240124012468
:108B500001240198000000000100010007F8010451
:108B6000010400000000010001F8000400040004FA
:108B7000010801FC0004010001800170000C0010DC
:108B800001600180010001F0010C003001C00030E3
:108B9000010C01F0010000000104018C007401705F
:108BA000018C01040000010101810171000E001817
:108BB00001600180010000000184010C01340144C6
:108BC0000184010C00000000000000000000010012
:108BD0003EFC400240020000000000000000FFFFD9
:108BE0000000000000000000400240023EFC0100C6
:108BF00000000000000000006000800080004000D5
:108C000040002000200000000000000000000000E4
:108C10000000000000000000000000000000000054
:108C20000000000000000000000000000000000044
:108C30000000000000000000000000000000000034
:108C40000000000000000000000000000000000024
:10996000000088104FE000109FD09510D510BFD098
:10997000B510D5501FD0001000000201420233FC88
:109980000002000147FF4491549154914FFD5491BE
:109990006495449307FD00010000020002024204A6
:1099A00033F80004100297FA55521D521552155201
:1099B000555297FA1002000200000880110023FFA0
:1099C000CC010102797C0940F940097C7908041135
:1099D0001BE6E8180FE6080100000200420033FC15
:1099E000000800117FFE4100497849487F484948F6
:1099F000497A41017FFE000000000002400240025F
:109A000043FE4002400240027FFE41024102410209
:109A1000410241024002000200000002000C3FF13E
:109A200024012402270224C4242844104428444446
:109A3000C582460200010001000008200620407E89
:109A4000318000007F7F4911491249124900497E47
:109A5000490949117F110027000008400842088188
:109A6000FFFE090004021902124214429042707E65
:109A70001442124215421802000002000200420085
:109A800033FC00090211050279C241344108411436
:109A9000796205820401040100000002E802A802C4
:109AA000ABFEAAAAEAAAAAAABEAAAAAAEAAAAAAA2D
:109AB000ABFEA802E802000200000004200421041A
:109AC000210421042104210421042104210421046E
:109AD000210421042004000400000401080617F8F2
:109AE0002490E4902490249027FE24902C9034928B
:109AF000049107FE00000000000000049004D7D489
:109B0000A555A556857CFD5407D49554D57CA556FE
:109B1000A55587D4F804000400000082208424881E
:109B20002491A4A164D127913C91249F6491A49194
:109B3000249124912081008000000200020242044E
:109B400033F8000420122F2229422982FFFA2982A9
:109B500029422F222012000200001080110097FFDE
:109B600058800342242428A8FEA228A104BE28A0CD
:109B7000FEA028A8242402020000000040FF5E92FC
:109B80005292529252FE529252925E9240FF0000C6
:109B90000FF000020001FFFE00000820082208412B
:109BA000FFFE08800A4122412A52A66A63C4224469
:109BB000264A2A7222410240000000003FF00020A5
:109BC0000040FFFF0000020104021B84E868081047
:109BD00008680F8408020801000011002600C40074
:109BE00045FF6552555245525D522552C55245D2E8
:109BF000641F540045004600000020042106210493
:109C00003FF82108210800027F22492249227FFED5
:109C1000492249227F2200020000020422482A52DF
:109C2000A64163FE26402A50224900063FF8220042
:109C3000220023FF42000200000020012122231401
:109C40002D1831E408142A922A922A92FFFE2A92B1
:109C50002A923E9208120802000002000202420408
:109C600033F800040A0A723213C21202FE0213F21F
:109C7000120A120A023A0002000008420841FFFEDE
:109C8000088000004108614852484A4845FF4A4858
:109C900052486148010801000000082008C00B007C
:109CA000FFFF0900289127D2F55425582570255823
:109CB000F55427D2201100010000042244424592AD
:109CC0007E12441244127F92447E441200123E12CD
:109CD00000920052FF820002000000800100060096
:109CE0001FFFE00400887C9044A044C047FF44C0AC
:109CF00044A07C90008800040000204020802100C7
:109D000027FF3800E04024402442244124FE25401F
:109D10002640244020402040000000800100060032
:109D20001FFFE00000002000249F2492A492649270
:109D300024922492249F2000000008403140225E9B
:109D40002082278220C2A942657E224224422842E4
:109D500021C2221F2900300000002040218027FE60
:109D60003A08220823FC000040104F104110411017
:109D700041127F11010201FC000011901698F89029
:109D800013FF10A0080013FF2A484A498BFF480020
:109D900029FA10010BFE080000000000003E3E0200
:109DA0000202020202020202FFFE0202020202029A
:109DB00002023F02003F0000000000010002000418
:109DC0000008003080C047003800070000C00030A5
:109DD000000C000200010001000000010202420428
:109DE0004208423043C07E00420043FC420242022D
:109DF00042020202020E0000000004440CE6354458
:109E0000C64804481848010209020904FFC809307D
:109E1000922852441282021F000000000004180819
:109E2000683108C10B011D82E9620914090809148F
:109E3000492229C2080100010000004000423FC43D
:109E40006A48AA522A613FFE0000080008800862A2
:109E50000801FFFE0800080000001008100C1008A0
:109E60001FF8101010111012080C0870FF80080263
:109E7000080108020FFC00000000001028902510C7
:109E8000221024902C90B59066BF2490299020D069
:109E90002210251028900010000000003FF822102A
:109EA00022103FF8000000411FC210441058FFE08C
:109EB000105810441FC20041000010041008101276
:109EC000106211821E82F082108210FE10821082B7
:109ED000108210821002100200001010102010409A
:109EE000108013FF1C82F082108210821082108278
:109EF000108210FF10001000000002000201420258
:109F000033FC0002000152814CBD448554858FFD15
:109F100084858C85B4BD00810000082008C00B003A
:109F2000FFFF090008C001004100410041007FFF20
:109F300041004100410001000000010041014102D7
:109F4000410C7FF0410041004100410041007FFF92
:109F500041004100410001000000008100810882B1
:109F600088826884088808B00FC008B008882884F0
:109F7000C8820882008100810000010101063FF8CB
:109F80006940A73221013FFE00001C0013FC902213
:109F9000704210821502181E000004000401040122
:109FA0007DF555555555555555FF555555555555EF
:109FB0007DF50401040104000000000200027E7E21
:109FC00000420042FF7E004202420C42F07E2042EC
:109FD0002842267E200200020000104010809100DE
:109FE00077FF190000C100027FC4401840604F8015
:109FF000407E40017FC10007000000000042444451
:10A000004CC854D065424541467E844088409050BB
:10A01000814880C400620000000004440CE635441E
:10A02000C6480C4800011102130C15F0990071008C
:10A0300011FC15021302118E000004001800107CA0
:10A040005740354015401540F5FF1540154035483F
:10A0500057441078140018000000000100067FF833
:10A0600044404440444044407FFE444044404442D5
:10A0700044417FFE00000000000008200822084143
:10A08000FFFE0880090000007FFF410141C241340A
:10A090004908453479C20001000048405740F5574F
:10A0A00055555755F0D55F5540D511553155EA55A1
:10A0B00024552A5731402140000008200620407EC8
:10A0C000318000000FFF084208420842FFFE0842AC
:10A0D000084208420FFF0000000000001FFF800040
:10A0E00060000000000040004000400040004000D0
:10A0F000400240017FFE0000000000400880110087
:10A1000023FFCC000000020042004202420143FE55
:10A11000420042004200020000002410246025801A
:10A120007FFFC480446000027C924492449244FECB
:10A13000449244927C9200820000082008C00B00E8
:10A14000FFFF090008800101120114C29034700859
:10A15000103414C21201110100000020402030FE12
:10A160000700020004001FFFF244124492447FFCE7
:10A170001244124412441004000000800700000042
:10A18000FFFF08000408103011C11E22F0C410188F
:10A1900017E0101810461181000004010809100989
:10A1A000EF922AB22AEA2AA42AA42AA42AAA2AB224
:10A1B0002FA22001200100010000000100067FF80D
:10A1C000400040004000400040004000400040008F
:10A1D0004000400040004000000002000200420039
:10A1E00042004200420242017FFE42004200420021
:10A1F00042004200020002000000000800081FC8E0
:10A2000092485248324812481FFF1248324852487A
:10A2100092481FC8000800080000008001000600E6
:10A220001FFFE00208020982087A88026802080E0D
:10A2300008720B82080200020000084008420881F0
:10A24000FFFE090004001901112111D297147108B1
:10A25000111411E215011900000002800C80F7FEB4
:10A260002484248A0164271839E408222AA22AA215
:10A27000FFFA2AA23EA208220000020002002200E9
:10A2800022FF2A922692A2926292229226922A92E9
:10A2900022FF2200020002000000110212041488B2
:10A2A0009050502014D0120C110101020E04F1C87C
:10A2B000103010CC1F0210010000082008C00B0055
:10A2C000FFFF090008C100067FF840004000400081
:10A2D0007FFC00020002001E000040004FFE400212
:10A2E00040024FF2491249124FF2491249124FF2FD
:10A2F000400240024FFF400000004000400047FF86
:10A30000440244024FFE74924492449247FE440237
:10A31000440247FF400040000000000000F83C906D
:10A320002490249024902490FFFF24902490249043
:10A3300024903C9000F800000000000000003FFE68
:10A3400020042004200420042004200420042004ED
:10A3500020043FFE00000000000002000200420056
:10A3600033FC00080914090609FC09080908FF80E4
:10A370000870880C6802080F0000000000001FF839
:10A380001110111011101110FFFE111111111111E6
:10A3900011111FF90001000F0000000100067FF8F5
:10A3A000400241024102410241025FFE410241027C
:10A3B0004122411A41024002000000001FFF8000BC
:10A3C000440004F8448054804FFE4490448844F094
:10A3D000440240017FFE00000000048008803480B9
:10A3E000E7FE2484248800000FE008400840FFFFB7
:10A3F000084008400FE00000000000003FFC21087A
:10A40000210821083FFC00000800088008600802BD
:10A410000801FFFE08000800000001000100010023
:10A420000100FFFF010201840548092011102108E5
:10A4300041040104010201020000010006001FFFA7
:10A44000E002003C3FC024FF2490A4FE649024FE60
:10A45000249024913CFF00000000080208440FA84B
:10A46000F81008680F86000001004102410147FE14
:10A470004900510061000100000000000FFF084288
:10A4800008420842FFFE084208420842FFFE084216
:10A49000084208420FFF00000000008102810C8288
:10A4A0007884088808B008C0FF8008C008B0088811
:10A4B00008840882008100810000082008220841E9
:10A4C000FFFE08810902000C1FF0110091007100CD
:10A4D0001100110011001F800000000000000000AA
:10A4E0001FFF112231225122912211221122112209
:10A4F0001FFF0000000000000000082008C00B0043
:10A50000FFFF09000A8204220A1A3282C27232064E
:10A510000A1A04E20202020200000200420033FEB4
:10A520000004000822002AFF2AA82AA8FEA82AAAB6
:10A530002AA92AFE220002000000002010200C4060
:10A540000080FFFF000011402150CA4844424841AA
:10A5500053FE6040004000400000000000007FFE0D
:10A56000400440044FE44824482448244FE4400475
:10A5700040047FFE000000000000000000000FF01B
:10A580000820082008200820FFFF082008200820B5
:10A5900008200FF000000000000002000400080086
:10A5A00037FCE44224422442244227C220222012C3
:10A5B0003FE20002000E00000000082008220841CF
:10A5C000FFFE088009000400247F244224427FC249
:10A5D0004442C442447F0400000000003FFC0444A5
:10A5E00024841504FFF4150424C500063FF8220056
:10A5F000220023FF42000200000004440CE6354420
:10A60000C648084800007FFE12220A420282FFFE6E
:10A6100002820A4212220002000004440CE6354481
:10A62000C648044818480411245125322494FC18C3
:10A6300025F024182514061300007E9752904A96A0
:10A640007FE04AA652A07EAD0402040C0470FF8095
:10A650000470440C340204010000020002004200B5
:10A6600033FC000900120004001800E0FF0000E0C5
:10A670000018000400020001000000007FFF4002FB
:10A68000441244224442448A45065FFA440244028A
:10A69000440240027FFF0000000000007FFF4010E6
:10A6A00044085B1160E20004001800E0FF0000E0D5
:10A6B00000180004000200010000200220222224D1
:10A6C0002324F2A822302220237F24202430F4A83F
:10A6D0002D24242420222002000000080810082035
:10A6E000084008900B100C10FFFF0C100B10089086
:10A6F00008400820081000080000000100061FF8AC
:10A7000011001108110411F810011002FF841068E3
:10A71000901850641382101F000000000040024097
:10A72000124012401240324232423FFE224022404A
:10A7300022402240224000400000001010101190E2
:10A74000129014901890F09017FF109010901090A5
:10A7500010901090101000100000010101063FF849
:10A760006940A73221013FFE0100027F7C42404246
:10A7700040427E42027F02000000000000002004F0
:10A7800000200C1020180E2010063FE000001000E2
:10A79000000800000C21FFF42122042122062922B6
:10A7A0000625220627FFF627220629220629220649
:10A7B00031221611223E01FFF600000400000000C5
:10A7C00000000003030601040602050003051F1C28
:10A7D0001F1E1F1E1F1F1E1F1E1F0000FCA700089C
:10A7E00000000020840A0000180A000890AE00084B
:10A7F000840A0020E40E0000783D00080124B20124
:10A80000380D040C183060C06030180C0480072923
:10A810000F1B800124101A028002C004BC056C05C5
:10A82000E80B900B100E081C081C18186033803CB5
:10A830001220280C10284482BABA82C6AA92820139
:10A84000380844281010387CFE012BEEC61A191265
:10A85000481D7FF8FFFCC00CC20CC70CC38CC1CCD8
:10A86000C1CCC38CC70CCE0C9C0C39FC13F81C1843
:10A8700015C84CDCECCFCCC78CC78CCFCCDCECC87B
:10A880004CC00CFFFC1A69024AE8024BC00802489F
:10A8900019FFF8DFC8DF88DF08DE08DC08D868C0E9
:10A8A000E8C1E8C3E8C7E8FFF81E4808DE68DEE84C
:10A8B000DDE8D92E7A1844100BF8FFF0FFE0FFC056
:10A8C000FF80FF12FE12FC12F812F012E012C022FA
:10A8D000801A7002112503F003F01C1FF01F0619E7
:10A8E0002A0A10F016ADAAA0555016AD0AA01550B0
:10A8F000161C02A0011099161220190AE91616FE5C
:10A9000070BA70D61EEFF0D7F0BA68696E180EEF05
:10A91000B0DFF0BDE07DF07DF001F07F021CBFE014
:10A92000DF14133FFF280A7FF980FFF0C0FFE040EB
:10A93000031BF0C00F1915291828083F80FE1FC0FF
:10A94000FC0F031909190F4918380867FF80C3FF66
:10A95000C081031909190F19151112101A300212AA
:10A96000383A780212FC480BFF01FC01FC037C031F
:10A970007C02022AFC02680803FC03FE03FE0102BB
:10A9800012FF1AFF2A29022AF8021A01021E03F8EE
:10A9900007F00FB4100C3FF07FE0FFE0FEE0FCC0DA
:10A9A000F012C0428012084AE822380903800738B2
:10A9B000067C0EFE0228087C0F380F800FF8023A42
:10A9C0001F02780A17F837F827F867F847023A4F56
:10A9D00002101A6F806F383E7C3EFE3EFE1EFE1E49
:10A9E0007C3F387F807FE06FC06F80405240120113
:10A9F0001D018001C0021AE0025AF00239941902C6
:10AA000019CC690219C439023A07025C0FFC1F16FF
:10AA10001A0706491419021CF407FE043AF0E6026C
:10AA200020F03A10DF09341E81C925990E3AFF0142
:10AA30004911420113F55146080102090A13256A1A
:10AA4000460802030112139D6C46080304021A1300
:10AA5000DD6646080405031E13C96746080506049B
:10AA60002213796946080607052513616B3E08071E
:10AA700008062D3C126246080809072E1345714648
:10AA80000809010844130D652E080A0B110A791AEA
:10AA9000816C2D0B0C0A0B0C1A9D0C2D0C0D0B0C44
:10AAA0000C1AB90C2D0D0E0C0D0C1AD50C2D0E0F09
:10AAB0000D0E0C1AF10C2D0F100E0F0C1A0D6C2D23
:10AAC00010110F100C1A290C2D110A10110C1A4517
:10AAD0000C3612131912021AF9C02D131412130C8A
:10AAE00013156D2E08141513140C1A310C2D151690
:10AAF00014150C1A4D0C2D161715160C1A690C2D61
:10AB0000171816170C1A850C2D181917180C1AA1DE
:10AB10000C2D191218190C1ABD0C2E1A1B1D1A0314
:10AB20009C19FC2D1B1C1A1B0C1AF1182D1C1D1B2B
:10AB30001C0C1A29FC2D1D1A1C1D0C133967370813
:10AB40001E1F211E04132D712E081F201E1F0C1AFC
:10AB5000A10C2D20211F200C1399612E08211E20ED
:10AB6000210C1AD9483622232422051A6160190BB8
:10AB70002A230C13696E1A080B2A240C13F5642F70
:10AB80000825262C25069019F02D262725260C1A97
:10AB9000D90C2D272826270C1AF50C2D2829272813
:10ABA0000C13116C2E08292A28290C1A2D0C2D2A79
:10ABB0002B292A0C1A490C2D2B2C2A2B0C1A650C2C
:10ABC0002D2C252B2C0C1A810C362D2D2D07071A18
:10ABD000F9CC362E2F3334081A410C2D2F302E3756
:10ABE0000C1A99842D30312F3A0C1A05A82D3132C8
:10ABF000303D0C1389722E08323331400C1A81B467
:10AC00002D332E32420C13E1653708343536342E9D
:10AC10001A0918190B2A350C1A61FC190B2A360C63
:10AC20001325683708373839372F13CD631A080BC7
:10AC30002A380C1AB124190B2A390C13516737081A
:10AC40003A3B3C3A301A9530190B2A3B0C1ACD0C82
:10AC5000190B2A3C0C1A5D0C363D3E3F3D3113B9B1
:10AC6000711A080B2A3E0C1A519C190B2A3F0C1A18
:10AC7000EDB43640404041321339702E0841414115
:10AC8000320C1ADD9C364242424333133D662E0895
:10AC9000434343330C1AB10C3644444409091A693E
:10ACA000CC81120A120B120C120D120E120F12107E
:10ACB0001211121212131214121512161217121860
:10ACC0001219121E121F12201221122212231224F4
:10ACD00012251226122712281229122A122B122CA0
:10ACE000123412351236123712381239123A123B18
:10ACF000123C123D123EB23F628062C062E053F0ED
:10AD0000102AF8ED2153FC7053FEF03BFFFF33098E
:10AD100023074AFE073A02074AFE074AFC074AF899
:10AD2000074AF0071BE0037A2C01FFC0881D03FFD0
:10AD30008001401307FF32013B07FE07130FFC2978
:10AD4000152B1FF8AB1B101F8B12601B183F351201
:10AD5000301B1C7F3512181B1E7F20120C131FFF87
:10AD60001A3F783B1FFECC2B1FFC36193742073C9D
:10AD70001FF00C073BE0380713C0601A0807138167
:10AD8000C0130C781A1F66130E501A3E3019071A9A
:10AD90007C6619071A7866130E6814F0FFF0120E1D
:10ADA0001B01E34B350E7801C64D0E50039C073A4C
:10ADB00030072A066D3D0E780F80F53A0FFC3B7880
:10ADC0001C071A486D29074A200729EE2BFFFE8130
:10ADD000292A4907C2782A0E0E12E02A1E2A12E0FA
:10ADE0004A3E074A7E07392A3BE001384BE0030719
:10ADF0004A07074A0F1C3A1F623CE03FEE073B7FC1
:10AE0000CE072BFF8E0744E1FF0E3BE3FE623CFFC3
:10AE1000FC0E8C4AF8074AF0074AE01C3AC02A4B5D
:10AE2000FF800E11330E4012FE2A0C07214A08073C
:10AE300011391C79C429158907591CC91549AF3A1C
:10AE4000CEA83C0F8E50AF3A0E074A3E072C7C0E20
:10AE500068073AF87E3BE1F07E3BE3E09A4BE7C0BF
:10AE6000A13AFFE08962597E490E3BFC08074AF887
:10AE7000072AF00729B0012572372D0102030404C7
:10AE80001009060708090204060884A24A04691882
:0400000508000101ED
:00000001FF
